{
  "_format": "hh-sol-artifact-1",
  "contractName": "ERC20Swap",
  "sourceName": "contracts/ERC20_Swap.sol",
  "abi": [
    {
      "inputs": [
        {
          "internalType": "contract ERC20Token",
          "name": "_token",
          "type": "address"
        }
      ],
      "stateMutability": "nonpayable",
      "type": "constructor"
    },
    {
      "inputs": [],
      "name": "Errors",
      "type": "error"
    },
    {
      "anonymous": false,
      "inputs": [
        {
          "indexed": true,
          "internalType": "address",
          "name": "swapper",
          "type": "address"
        },
        {
          "indexed": false,
          "internalType": "string",
          "name": "from",
          "type": "string"
        },
        {
          "indexed": false,
          "internalType": "string",
          "name": "to",
          "type": "string"
        },
        {
          "indexed": false,
          "internalType": "uint256",
          "name": "amount",
          "type": "uint256"
        }
      ],
      "name": "SwapEvent",
      "type": "event"
    },
    {
      "inputs": [
        {
          "internalType": "uint256",
          "name": "_amount",
          "type": "uint256"
        }
      ],
      "name": "addLiquidity",
      "outputs": [
        {
          "internalType": "uint256",
          "name": "shares",
          "type": "uint256"
        }
      ],
      "stateMutability": "payable",
      "type": "function"
    },
    {
      "inputs": [
        {
          "internalType": "address",
          "name": "",
          "type": "address"
        }
      ],
      "name": "balanceOf",
      "outputs": [
        {
          "internalType": "uint256",
          "name": "",
          "type": "uint256"
        }
      ],
      "stateMutability": "view",
      "type": "function"
    },
    {
      "inputs": [
        {
          "internalType": "uint256",
          "name": "_shares",
          "type": "uint256"
        }
      ],
      "name": "removeLiquidity",
      "outputs": [
        {
          "internalType": "uint256",
          "name": "amount0",
          "type": "uint256"
        },
        {
          "internalType": "uint256",
          "name": "amount1",
          "type": "uint256"
        }
      ],
      "stateMutability": "nonpayable",
      "type": "function"
    },
    {
      "inputs": [],
      "name": "reserve0",
      "outputs": [
        {
          "internalType": "uint256",
          "name": "",
          "type": "uint256"
        }
      ],
      "stateMutability": "view",
      "type": "function"
    },
    {
      "inputs": [],
      "name": "reserve1",
      "outputs": [
        {
          "internalType": "uint256",
          "name": "",
          "type": "uint256"
        }
      ],
      "stateMutability": "view",
      "type": "function"
    },
    {
      "inputs": [
        {
          "internalType": "uint256",
          "name": "amount",
          "type": "uint256"
        }
      ],
      "name": "swapEthFromToken",
      "outputs": [],
      "stateMutability": "payable",
      "type": "function"
    },
    {
      "inputs": [],
      "name": "swapTokenFromhEth",
      "outputs": [],
      "stateMutability": "payable",
      "type": "function"
    },
    {
      "inputs": [],
      "name": "totalSupply",
      "outputs": [
        {
          "internalType": "uint256",
          "name": "",
          "type": "uint256"
        }
      ],
      "stateMutability": "view",
      "type": "function"
    }
  ],
  "bytecode": "0x60a06040523480156200001157600080fd5b5060405162001349380380620013498339818101604052810190620000379190620000f0565b8073ffffffffffffffffffffffffffffffffffffffff1660808173ffffffffffffffffffffffffffffffffffffffff16815250505062000122565b600080fd5b600073ffffffffffffffffffffffffffffffffffffffff82169050919050565b6000620000a48262000077565b9050919050565b6000620000b88262000097565b9050919050565b620000ca81620000ab565b8114620000d657600080fd5b50565b600081519050620000ea81620000bf565b92915050565b60006020828403121562000109576200010862000072565b5b60006200011984828501620000d9565b91505092915050565b6080516111da6200016f600039600081816101d3015281816102d1015281816103dc0152818161047e01528181610628015281816107760152818161094301526109f801526111da6000f3fe60806040526004361061007a5760003560e01c806351c6590a1161004e57806351c6590a146100fb5780635a76f25e1461012b57806370a08231146101565780639c8f9f23146101935761007a565b80629133391461007f57806318160ddd1461009b5780633c92485b146100c6578063443cb4bc146100d0575b600080fd5b61009960048036038101906100949190610d04565b6101d1565b005b3480156100a757600080fd5b506100b06103c1565b6040516100bd9190610d40565b60405180910390f35b6100ce6103c7565b005b3480156100dc57600080fd5b506100e561056d565b6040516100f29190610d40565b60405180910390f35b61011560048036038101906101109190610d04565b610573565b6040516101229190610d40565b60405180910390f35b34801561013757600080fd5b50610140610819565b60405161014d9190610d40565b60405180910390f35b34801561016257600080fd5b5061017d60048036038101906101789190610db9565b61081f565b60405161018a9190610d40565b60405180910390f35b34801561019f57600080fd5b506101ba60048036038101906101b59190610d04565b610837565b6040516101c8929190610de6565b60405180910390f35b7f000000000000000000000000000000000000000000000000000000000000000073ffffffffffffffffffffffffffffffffffffffff166323b872dd3330846040518463ffffffff1660e01b815260040161022e93929190610e1e565b6020604051808303816000875af115801561024d573d6000803e3d6000fd5b505050506040513d601f19601f820116820180604052508101906102719190610e8d565b50600061028360005460015484610ae1565b90503373ffffffffffffffffffffffffffffffffffffffff166108fc829081150290604051600060405180830381858888f193505050501580156102cb573d6000803e3d6000fd5b5061036f7f000000000000000000000000000000000000000000000000000000000000000073ffffffffffffffffffffffffffffffffffffffff166370a08231306040518263ffffffff1660e01b81526004016103289190610eba565b602060405180830381865afa158015610345573d6000803e3d6000fd5b505050506040513d601f19601f820116820180604052508101906103699190610eea565b47610b3d565b3373ffffffffffffffffffffffffffffffffffffffff167feec3cd152f8de8099b60d567cf7aaa1bf9784480abe584d7f3feacbc3ecd3821826040516103b59190610fc0565b60405180910390a25050565b60025481565b60006103d860015460005434610ae1565b90507f000000000000000000000000000000000000000000000000000000000000000073ffffffffffffffffffffffffffffffffffffffff1663a9059cbb33836040518363ffffffff1660e01b8152600401610435929190611001565b6020604051808303816000875af1158015610454573d6000803e3d6000fd5b505050506040513d601f19601f820116820180604052508101906104789190610e8d565b5061051c7f000000000000000000000000000000000000000000000000000000000000000073ffffffffffffffffffffffffffffffffffffffff166370a08231306040518263ffffffff1660e01b81526004016104d59190610eba565b602060405180830381865afa1580156104f2573d6000803e3d6000fd5b505050506040513d601f19601f820116820180604052508101906105169190610eea565b47610b3d565b3373ffffffffffffffffffffffffffffffffffffffff167feec3cd152f8de8099b60d567cf7aaa1bf9784480abe584d7f3feacbc3ecd382182604051610562919061102a565b60405180910390a250565b60005481565b600080341480156105845750600082145b156105bb576040517ff61d9afc00000000000000000000000000000000000000000000000000000000815260040160405180910390fd5b6000805411806105cd57506000600154115b1561062657816001546105e0919061109a565b346000546105ee919061109a565b14610625576040517ff61d9afc00000000000000000000000000000000000000000000000000000000815260040160405180910390fd5b5b7f000000000000000000000000000000000000000000000000000000000000000073ffffffffffffffffffffffffffffffffffffffff166323b872dd3330856040518463ffffffff1660e01b815260040161068393929190610e1e565b6020604051808303816000875af11580156106a2573d6000803e3d6000fd5b505050506040513d601f19601f820116820180604052508101906106c69190610e8d565b506000600254036106ec576106e534836106e0919061109a565b610b4f565b905061072d565b61072a60005460025484610700919061109a565b61070a919061110b565b6001546002543461071b919061109a565b610725919061110b565b610bc9565b90505b60008111610767576040517ff61d9afc00000000000000000000000000000000000000000000000000000000815260040160405180910390fd5b6107713382610be3565b6108147f000000000000000000000000000000000000000000000000000000000000000073ffffffffffffffffffffffffffffffffffffffff166370a08231306040518263ffffffff1660e01b81526004016107cd9190610eba565b602060405180830381865afa1580156107ea573d6000803e3d6000fd5b505050506040513d601f19601f8201168201806040525081019061080e9190610eea565b47610b3d565b919050565b60015481565b60036020528060005260406000206000915090505481565b600080600360003373ffffffffffffffffffffffffffffffffffffffff1673ffffffffffffffffffffffffffffffffffffffff168152602001908152602001600020548311156108b3576040517ff61d9afc00000000000000000000000000000000000000000000000000000000815260040160405180910390fd5b600254600154846108c4919061109a565b6108ce919061110b565b9050600254600054846108e1919061109a565b6108eb919061110b565b915060008210806108fc5750600081105b15610933576040517ff61d9afc00000000000000000000000000000000000000000000000000000000815260040160405180910390fd5b61093d3384610c56565b6109f6827f000000000000000000000000000000000000000000000000000000000000000073ffffffffffffffffffffffffffffffffffffffff166370a08231306040518263ffffffff1660e01b815260040161099a9190610eba565b602060405180830381865afa1580156109b7573d6000803e3d6000fd5b505050506040513d601f19601f820116820180604052508101906109db9190610eea565b6109e5919061113c565b82476109f1919061113c565b610b3d565b7f000000000000000000000000000000000000000000000000000000000000000073ffffffffffffffffffffffffffffffffffffffff1663a9059cbb33846040518363ffffffff1660e01b8152600401610a51929190611001565b6020604051808303816000875af1158015610a70573d6000803e3d6000fd5b505050506040513d601f19601f82011682018060405250810190610a949190610e8d565b503373ffffffffffffffffffffffffffffffffffffffff166108fc829081150290604051600060405180830381858888f19350505050158015610adb573d6000803e3d6000fd5b50915091565b6000808483610af09190611170565b8385610afc919061109a565b610b06919061110b565b905060006103e8600383610b1a919061109a565b610b24919061110b565b90508082610b32919061113c565b925050509392505050565b81600081905550806001819055505050565b60006003821115610bb65781905060006001600284610b6e919061110b565b610b789190611170565b90505b81811015610bb0578091506002818285610b95919061110b565b610b9f9190611170565b610ba9919061110b565b9050610b7b565b50610bc4565b60008214610bc357600190505b5b919050565b600081831115610bd95781610bdb565b825b905092915050565b80600360008473ffffffffffffffffffffffffffffffffffffffff1673ffffffffffffffffffffffffffffffffffffffff1681526020019081526020016000206000828254610c329190611170565b925050819055508060026000828254610c4b9190611170565b925050819055505050565b80600360008473ffffffffffffffffffffffffffffffffffffffff1673ffffffffffffffffffffffffffffffffffffffff1681526020019081526020016000206000828254610ca5919061113c565b925050819055508060026000828254610cbe919061113c565b925050819055505050565b600080fd5b6000819050919050565b610ce181610cce565b8114610cec57600080fd5b50565b600081359050610cfe81610cd8565b92915050565b600060208284031215610d1a57610d19610cc9565b5b6000610d2884828501610cef565b91505092915050565b610d3a81610cce565b82525050565b6000602082019050610d556000830184610d31565b92915050565b600073ffffffffffffffffffffffffffffffffffffffff82169050919050565b6000610d8682610d5b565b9050919050565b610d9681610d7b565b8114610da157600080fd5b50565b600081359050610db381610d8d565b92915050565b600060208284031215610dcf57610dce610cc9565b5b6000610ddd84828501610da4565b91505092915050565b6000604082019050610dfb6000830185610d31565b610e086020830184610d31565b9392505050565b610e1881610d7b565b82525050565b6000606082019050610e336000830186610e0f565b610e406020830185610e0f565b610e4d6040830184610d31565b949350505050565b60008115159050919050565b610e6a81610e55565b8114610e7557600080fd5b50565b600081519050610e8781610e61565b92915050565b600060208284031215610ea357610ea2610cc9565b5b6000610eb184828501610e78565b91505092915050565b6000602082019050610ecf6000830184610e0f565b92915050565b600081519050610ee481610cd8565b92915050565b600060208284031215610f0057610eff610cc9565b5b6000610f0e84828501610ed5565b91505092915050565b600082825260208201905092915050565b7f746f6b656e000000000000000000000000000000000000000000000000000000600082015250565b6000610f5e600583610f17565b9150610f6982610f28565b602082019050919050565b7f6574680000000000000000000000000000000000000000000000000000000000600082015250565b6000610faa600383610f17565b9150610fb582610f74565b602082019050919050565b60006060820190508181036000830152610fd981610f51565b90508181036020830152610fec81610f9d565b9050610ffb6040830184610d31565b92915050565b60006040820190506110166000830185610e0f565b6110236020830184610d31565b9392505050565b6000606082019050818103600083015261104381610f9d565b9050818103602083015261105681610f51565b90506110656040830184610d31565b92915050565b7f4e487b7100000000000000000000000000000000000000000000000000000000600052601160045260246000fd5b60006110a582610cce565b91506110b083610cce565b92508282026110be81610cce565b915082820484148315176110d5576110d461106b565b5b5092915050565b7f4e487b7100000000000000000000000000000000000000000000000000000000600052601260045260246000fd5b600061111682610cce565b915061112183610cce565b925082611131576111306110dc565b5b828204905092915050565b600061114782610cce565b915061115283610cce565b925082820390508181111561116a5761116961106b565b5b92915050565b600061117b82610cce565b915061118683610cce565b925082820190508082111561119e5761119d61106b565b5b9291505056fea2646970667358221220a4e99543d0361608dac82350ecad08cc4592c47743a7993af48b06a02fcc35f964736f6c63430008110033",
  "linkReferences": {},
  "deployedLinkReferences": {}
}