{
  "_format": "hh-sol-artifact-1",
  "contractName": "Auction",
  "sourceName": "contracts/Auction.sol",
  "abi": [
    {
      "inputs": [
        {
          "internalType": "contract ERC721Token",
          "name": "addr",
          "type": "address"
        }
      ],
      "stateMutability": "nonpayable",
      "type": "constructor"
    },
    {
      "inputs": [],
      "name": "AlreadyEnded",
      "type": "error"
    },
    {
      "inputs": [],
      "name": "Denied",
      "type": "error"
    },
    {
      "inputs": [],
      "name": "Ended",
      "type": "error"
    },
    {
      "inputs": [],
      "name": "NotAuthorised",
      "type": "error"
    },
    {
      "inputs": [],
      "name": "NotStarted",
      "type": "error"
    },
    {
      "inputs": [],
      "name": "TimeHasNotFinished",
      "type": "error"
    },
    {
      "inputs": [],
      "name": "WhilePurchasing",
      "type": "error"
    },
    {
      "anonymous": false,
      "inputs": [
        {
          "indexed": true,
          "internalType": "address",
          "name": "previousOwner",
          "type": "address"
        },
        {
          "indexed": true,
          "internalType": "address",
          "name": "newOwner",
          "type": "address"
        }
      ],
      "name": "OwnershipTransferred",
      "type": "event"
    },
    {
      "anonymous": false,
      "inputs": [
        {
          "indexed": true,
          "internalType": "address",
          "name": "auctioner",
          "type": "address"
        },
        {
          "indexed": true,
          "internalType": "address",
          "name": "buyer",
          "type": "address"
        },
        {
          "indexed": true,
          "internalType": "uint256",
          "name": "Token_id",
          "type": "uint256"
        },
        {
          "indexed": false,
          "internalType": "uint256",
          "name": "amount",
          "type": "uint256"
        }
      ],
      "name": "boughtAuctionWithEth",
      "type": "event"
    },
    {
      "anonymous": false,
      "inputs": [
        {
          "indexed": true,
          "internalType": "address",
          "name": "auctioner",
          "type": "address"
        },
        {
          "indexed": true,
          "internalType": "address",
          "name": "buyer",
          "type": "address"
        },
        {
          "indexed": true,
          "internalType": "uint256",
          "name": "Token_id",
          "type": "uint256"
        },
        {
          "indexed": false,
          "internalType": "uint256",
          "name": "amount",
          "type": "uint256"
        },
        {
          "indexed": false,
          "internalType": "address",
          "name": "token_Address",
          "type": "address"
        }
      ],
      "name": "boughtAuctionWithToken",
      "type": "event"
    },
    {
      "anonymous": false,
      "inputs": [
        {
          "indexed": true,
          "internalType": "address",
          "name": "auctioner",
          "type": "address"
        },
        {
          "indexed": true,
          "internalType": "uint256",
          "name": "minimum_Price",
          "type": "uint256"
        },
        {
          "indexed": true,
          "internalType": "uint256",
          "name": "Token_id",
          "type": "uint256"
        },
        {
          "indexed": false,
          "internalType": "uint256",
          "name": "ending_Date",
          "type": "uint256"
        }
      ],
      "name": "soldAuctionWithEth",
      "type": "event"
    },
    {
      "anonymous": false,
      "inputs": [
        {
          "indexed": true,
          "internalType": "address",
          "name": "auctioner",
          "type": "address"
        },
        {
          "indexed": true,
          "internalType": "uint256",
          "name": "minimum_Price",
          "type": "uint256"
        },
        {
          "indexed": true,
          "internalType": "uint256",
          "name": "Token_id",
          "type": "uint256"
        },
        {
          "indexed": false,
          "internalType": "uint256",
          "name": "ending_Date",
          "type": "uint256"
        },
        {
          "indexed": false,
          "internalType": "address",
          "name": "tokenAddress",
          "type": "address"
        }
      ],
      "name": "soldAuctionWithToken",
      "type": "event"
    },
    {
      "inputs": [
        {
          "internalType": "uint256",
          "name": "token_id",
          "type": "uint256"
        }
      ],
      "name": "SubmitItem",
      "outputs": [],
      "stateMutability": "nonpayable",
      "type": "function"
    },
    {
      "inputs": [
        {
          "internalType": "uint256",
          "name": "Token_id",
          "type": "uint256"
        }
      ],
      "name": "getAuctionDetails",
      "outputs": [
        {
          "components": [
            {
              "internalType": "address",
              "name": "tokenAddress",
              "type": "address"
            },
            {
              "internalType": "string",
              "name": "name",
              "type": "string"
            },
            {
              "internalType": "uint256",
              "name": "startingPrice",
              "type": "uint256"
            },
            {
              "internalType": "uint256",
              "name": "max_Price",
              "type": "uint256"
            },
            {
              "internalType": "uint256",
              "name": "EndingDate",
              "type": "uint256"
            },
            {
              "internalType": "address",
              "name": "max_Pricer",
              "type": "address"
            },
            {
              "internalType": "address payable",
              "name": "auctionMaker",
              "type": "address"
            },
            {
              "internalType": "bool",
              "name": "eth",
              "type": "bool"
            },
            {
              "internalType": "bool",
              "name": "started",
              "type": "bool"
            },
            {
              "internalType": "bool",
              "name": "ended",
              "type": "bool"
            }
          ],
          "internalType": "struct Auction.AuctionDetails",
          "name": "",
          "type": "tuple"
        }
      ],
      "stateMutability": "view",
      "type": "function"
    },
    {
      "inputs": [
        {
          "internalType": "uint256",
          "name": "id",
          "type": "uint256"
        },
        {
          "internalType": "address",
          "name": "_add",
          "type": "address"
        }
      ],
      "name": "getInvestorDetails",
      "outputs": [
        {
          "internalType": "uint256",
          "name": "investorValue",
          "type": "uint256"
        }
      ],
      "stateMutability": "view",
      "type": "function"
    },
    {
      "inputs": [
        {
          "internalType": "uint256",
          "name": "token_id",
          "type": "uint256"
        },
        {
          "internalType": "uint256",
          "name": "amount",
          "type": "uint256"
        }
      ],
      "name": "getTheItem",
      "outputs": [],
      "stateMutability": "payable",
      "type": "function"
    },
    {
      "inputs": [],
      "name": "owner",
      "outputs": [
        {
          "internalType": "address",
          "name": "",
          "type": "address"
        }
      ],
      "stateMutability": "view",
      "type": "function"
    },
    {
      "inputs": [],
      "name": "renounceOwnership",
      "outputs": [],
      "stateMutability": "nonpayable",
      "type": "function"
    },
    {
      "inputs": [
        {
          "internalType": "string",
          "name": "_uri",
          "type": "string"
        },
        {
          "internalType": "string",
          "name": "_name",
          "type": "string"
        },
        {
          "internalType": "uint256",
          "name": "_amount",
          "type": "uint256"
        },
        {
          "internalType": "uint256",
          "name": "_endingDate",
          "type": "uint256"
        }
      ],
      "name": "sellToAuctionWithEth",
      "outputs": [],
      "stateMutability": "nonpayable",
      "type": "function"
    },
    {
      "inputs": [
        {
          "internalType": "string",
          "name": "_uri",
          "type": "string"
        },
        {
          "internalType": "address",
          "name": "_tokenAddress",
          "type": "address"
        },
        {
          "internalType": "string",
          "name": "_name",
          "type": "string"
        },
        {
          "internalType": "uint256",
          "name": "_amount",
          "type": "uint256"
        },
        {
          "internalType": "uint256",
          "name": "_endingDate",
          "type": "uint256"
        }
      ],
      "name": "sellToAuctionWithToken",
      "outputs": [],
      "stateMutability": "nonpayable",
      "type": "function"
    },
    {
      "inputs": [
        {
          "internalType": "uint256",
          "name": "amount",
          "type": "uint256"
        }
      ],
      "name": "sendEth",
      "outputs": [],
      "stateMutability": "nonpayable",
      "type": "function"
    },
    {
      "inputs": [
        {
          "internalType": "uint256",
          "name": "Token_id",
          "type": "uint256"
        }
      ],
      "name": "takeAmountFromAuction",
      "outputs": [],
      "stateMutability": "nonpayable",
      "type": "function"
    },
    {
      "inputs": [
        {
          "internalType": "address",
          "name": "newOwner",
          "type": "address"
        }
      ],
      "name": "transferOwnership",
      "outputs": [],
      "stateMutability": "nonpayable",
      "type": "function"
    }
  ],
  "bytecode": "0x60a06040523480156200001157600080fd5b5060405162002768380380620027688339818101604052810190620000379190620001dc565b620000576200004b6200009260201b60201c565b6200009a60201b60201c565b8073ffffffffffffffffffffffffffffffffffffffff1660808173ffffffffffffffffffffffffffffffffffffffff1681525050506200020e565b600033905090565b60008060009054906101000a900473ffffffffffffffffffffffffffffffffffffffff169050816000806101000a81548173ffffffffffffffffffffffffffffffffffffffff021916908373ffffffffffffffffffffffffffffffffffffffff1602179055508173ffffffffffffffffffffffffffffffffffffffff168173ffffffffffffffffffffffffffffffffffffffff167f8be0079c531659141344cd1fd0a4f28419497f9722a3daafe3b4186f6b6457e060405160405180910390a35050565b600080fd5b600073ffffffffffffffffffffffffffffffffffffffff82169050919050565b6000620001908262000163565b9050919050565b6000620001a48262000183565b9050919050565b620001b68162000197565b8114620001c257600080fd5b50565b600081519050620001d681620001ab565b92915050565b600060208284031215620001f557620001f46200015e565b5b60006200020584828501620001c5565b91505092915050565b60805161253062000238600039600081816108a50152818161095d015261160401526125306000f3fe60806040526004361061009c5760003560e01c806377fdc3801161006457806377fdc380146101635780638da5cb5b1461018c578063bc99e5f2146101b7578063cfc54848146101e0578063f20e5e3514610209578063f2fde38b146102465761009c565b806303b41421146100a1578063126f2d3c146100ca5780632a0540e91461010757806368ec434314610123578063715018a61461014c575b600080fd5b3480156100ad57600080fd5b506100c860048036038101906100c391906118ff565b61026f565b005b3480156100d657600080fd5b506100f160048036038101906100ec919061198a565b610534565b6040516100fe91906119d9565b60405180910390f35b610121600480360381019061011c91906119f4565b61058f565b005b34801561012f57600080fd5b5061014a600480360381019061014591906118ff565b610712565b005b34801561015857600080fd5b50610161610dc3565b005b34801561016f57600080fd5b5061018a60048036038101906101859190611a99565b610dd7565b005b34801561019857600080fd5b506101a1610e53565b6040516101ae9190611b64565b60405180910390f35b3480156101c357600080fd5b506101de60048036038101906101d99190611b7f565b610e7c565b005b3480156101ec57600080fd5b50610207600480360381019061020291906118ff565b610ef6565b005b34801561021557600080fd5b50610230600480360381019061022b91906118ff565b610f48565b60405161023d9190611dea565b60405180910390f35b34801561025257600080fd5b5061026d60048036038101906102689190611e0c565b611179565b005b42600260008381526020019081526020016000206004015411156102bf576040517fe115aacc00000000000000000000000000000000000000000000000000000000815260040160405180910390fd5b3373ffffffffffffffffffffffffffffffffffffffff166002600083815260200190815260200160002060050160009054906101000a900473ffffffffffffffffffffffffffffffffffffffff1673ffffffffffffffffffffffffffffffffffffffff160361035a576040517fe3372e2d00000000000000000000000000000000000000000000000000000000815260040160405180910390fd5b60006001600083815260200190815260200160002060003373ffffffffffffffffffffffffffffffffffffffff1673ffffffffffffffffffffffffffffffffffffffff16815260200190815260200160002054905060006001600084815260200190815260200160002060003373ffffffffffffffffffffffffffffffffffffffff1673ffffffffffffffffffffffffffffffffffffffff168152602001908152602001600020819055506002600083815260200190815260200160002060060160149054906101000a900460ff161561047a573373ffffffffffffffffffffffffffffffffffffffff166108fc829081150290604051600060405180830381858888f19350505050158015610474573d6000803e3d6000fd5b50610530565b6002600083815260200190815260200160002060000160009054906101000a900473ffffffffffffffffffffffffffffffffffffffff1673ffffffffffffffffffffffffffffffffffffffff1663a9059cbb33836040518363ffffffff1660e01b81526004016104eb929190611e39565b6020604051808303816000875af115801561050a573d6000803e3d6000fd5b505050506040513d601f19601f8201168201806040525081019061052e9190611e8e565b505b5050565b60006001600084815260200190815260200160002060008373ffffffffffffffffffffffffffffffffffffffff1673ffffffffffffffffffffffffffffffffffffffff16815260200190815260200160002054905092915050565b60006002600084815260200190815260200160002090508060060160169054906101000a900460ff16156105ef576040517f477383f300000000000000000000000000000000000000000000000000000000815260040160405180910390fd5b8060060160159054906101000a900460ff16610637576040517f6f312cbd00000000000000000000000000000000000000000000000000000000815260040160405180910390fd5b8060040154421115610675576040517f4f9ebfb700000000000000000000000000000000000000000000000000000000815260040160405180910390fd5b8060060160149054906101000a900460ff16156106ad576106a834848360060160149054906101000a900460ff166111fc565b6106ca565b6106c982848360060160149054906101000a900460ff166111fc565b5b338160050160006101000a81548173ffffffffffffffffffffffffffffffffffffffff021916908373ffffffffffffffffffffffffffffffffffffffff160217905550505050565b60006002600083815260200190815260200160002090504281600401541115610767576040517fe115aacc00000000000000000000000000000000000000000000000000000000815260040160405180910390fd5b8060060160169054906101000a900460ff16156107b0576040517f477383f300000000000000000000000000000000000000000000000000000000815260040160405180910390fd5b3373ffffffffffffffffffffffffffffffffffffffff168160050160009054906101000a900473ffffffffffffffffffffffffffffffffffffffff1673ffffffffffffffffffffffffffffffffffffffff161415801561086057503373ffffffffffffffffffffffffffffffffffffffff168160060160009054906101000a900473ffffffffffffffffffffffffffffffffffffffff1673ffffffffffffffffffffffffffffffffffffffff1614155b15610897576040517f1648fd0100000000000000000000000000000000000000000000000000000000815260040160405180910390fd5b600081600301540361095b577f000000000000000000000000000000000000000000000000000000000000000073ffffffffffffffffffffffffffffffffffffffff166323b872dd308360060160009054906101000a900473ffffffffffffffffffffffffffffffffffffffff16856040518463ffffffff1660e01b815260040161092493929190611f1a565b600060405180830381600087803b15801561093e57600080fd5b505af1158015610952573d6000803e3d6000fd5b50505050610dbf565b7f000000000000000000000000000000000000000000000000000000000000000073ffffffffffffffffffffffffffffffffffffffff166323b872dd308360050160009054906101000a900473ffffffffffffffffffffffffffffffffffffffff16856040518463ffffffff1660e01b81526004016109dc93929190611f51565b600060405180830381600087803b1580156109f657600080fd5b505af1158015610a0a573d6000803e3d6000fd5b5050505060018160060160166101000a81548160ff0219169083151502179055508060060160149054906101000a900460ff1615610b68578060060160009054906101000a900473ffffffffffffffffffffffffffffffffffffffff1673ffffffffffffffffffffffffffffffffffffffff166108fc82600301549081150290604051600060405180830381858888f19350505050158015610ab0573d6000803e3d6000fd5b50818160050160009054906101000a900473ffffffffffffffffffffffffffffffffffffffff1673ffffffffffffffffffffffffffffffffffffffff168260060160009054906101000a900473ffffffffffffffffffffffffffffffffffffffff1673ffffffffffffffffffffffffffffffffffffffff167f25ce5f6461b459cd83c0fe9d01b82c579b754f97e0003e8e061742449ee41a6f8460030154604051610b5b91906119d9565b60405180910390a4610d0c565b8060000160009054906101000a900473ffffffffffffffffffffffffffffffffffffffff1673ffffffffffffffffffffffffffffffffffffffff1663a9059cbb8260060160009054906101000a900473ffffffffffffffffffffffffffffffffffffffff1683600301546040518363ffffffff1660e01b8152600401610bef929190611f88565b6020604051808303816000875af1158015610c0e573d6000803e3d6000fd5b505050506040513d601f19601f82011682018060405250810190610c329190611e8e565b50818160050160009054906101000a900473ffffffffffffffffffffffffffffffffffffffff1673ffffffffffffffffffffffffffffffffffffffff168260060160009054906101000a900473ffffffffffffffffffffffffffffffffffffffff1673ffffffffffffffffffffffffffffffffffffffff167fb66970a9a75f8efabca56ea327a61b5d39107952bfdedd5c1e1a48563ae3a1e584600301548560000160009054906101000a900473ffffffffffffffffffffffffffffffffffffffff16604051610d03929190611fb1565b60405180910390a45b818160050160009054906101000a900473ffffffffffffffffffffffffffffffffffffffff1673ffffffffffffffffffffffffffffffffffffffff168260060160009054906101000a900473ffffffffffffffffffffffffffffffffffffffff1673ffffffffffffffffffffffffffffffffffffffff167f25ce5f6461b459cd83c0fe9d01b82c579b754f97e0003e8e061742449ee41a6f8460030154604051610db691906119d9565b60405180910390a45b5050565b610dcb6114be565b610dd5600061153c565b565b6000610dea888888888888600089611600565b905080833373ffffffffffffffffffffffffffffffffffffffff167f9d4d8d4eff1b164f633d7a27c8e1e9f888bb9aa8f3f926fb08383a18d963014e8542610e329190612009565b8a604051610e41929190611fb1565b60405180910390a45050505050505050565b60008060009054906101000a900473ffffffffffffffffffffffffffffffffffffffff16905090565b6000610e9087876000888888600189611600565b905080833373ffffffffffffffffffffffffffffffffffffffff167fbef115dafc21a2ff16f5946ab34350b8dd267e6a2940c157b5f9d4a57638332a8542610ed89190612009565b604051610ee591906119d9565b60405180910390a450505050505050565b610efe6114be565b3373ffffffffffffffffffffffffffffffffffffffff166108fc829081150290604051600060405180830381858888f19350505050158015610f44573d6000803e3d6000fd5b5050565b610f50611824565b60026000838152602001908152602001600020604051806101400160405290816000820160009054906101000a900473ffffffffffffffffffffffffffffffffffffffff1673ffffffffffffffffffffffffffffffffffffffff1673ffffffffffffffffffffffffffffffffffffffff168152602001600182018054610fd59061206c565b80601f01602080910402602001604051908101604052809291908181526020018280546110019061206c565b801561104e5780601f106110235761010080835404028352916020019161104e565b820191906000526020600020905b81548152906001019060200180831161103157829003601f168201915b505050505081526020016002820154815260200160038201548152602001600482015481526020016005820160009054906101000a900473ffffffffffffffffffffffffffffffffffffffff1673ffffffffffffffffffffffffffffffffffffffff1673ffffffffffffffffffffffffffffffffffffffff1681526020016006820160009054906101000a900473ffffffffffffffffffffffffffffffffffffffff1673ffffffffffffffffffffffffffffffffffffffff1673ffffffffffffffffffffffffffffffffffffffff1681526020016006820160149054906101000a900460ff161515151581526020016006820160159054906101000a900460ff161515151581526020016006820160169054906101000a900460ff1615151515815250509050919050565b6111816114be565b600073ffffffffffffffffffffffffffffffffffffffff168173ffffffffffffffffffffffffffffffffffffffff16036111f0576040517f08c379a00000000000000000000000000000000000000000000000000000000081526004016111e790612120565b60405180910390fd5b6111f98161153c565b50565b600060026000848152602001908152602001600020905060006001600085815260200190815260200160002060003373ffffffffffffffffffffffffffffffffffffffff1673ffffffffffffffffffffffffffffffffffffffff16815260200190815260200160002054036112aa5780600201548410156112a9576040517f40f04b3700000000000000000000000000000000000000000000000000000000815260040160405180910390fd5b5b8060030154846001600086815260200190815260200160002060003373ffffffffffffffffffffffffffffffffffffffff1673ffffffffffffffffffffffffffffffffffffffff1681526020019081526020016000205461130b9190612009565b11611342576040517f40f04b3700000000000000000000000000000000000000000000000000000000815260040160405180910390fd5b816113ed578060000160009054906101000a900473ffffffffffffffffffffffffffffffffffffffff1673ffffffffffffffffffffffffffffffffffffffff166323b872dd3330876040518463ffffffff1660e01b81526004016113a893929190611f51565b6020604051808303816000875af11580156113c7573d6000803e3d6000fd5b505050506040513d601f19601f820116820180604052508101906113eb9190611e8e565b505b836001600085815260200190815260200160002060003373ffffffffffffffffffffffffffffffffffffffff1673ffffffffffffffffffffffffffffffffffffffff168152602001908152602001600020546114499190612009565b8160030181905550836001600085815260200190815260200160002060003373ffffffffffffffffffffffffffffffffffffffff1673ffffffffffffffffffffffffffffffffffffffff16815260200190815260200160002060008282546114b19190612009565b9250508190555050505050565b6114c661181c565b73ffffffffffffffffffffffffffffffffffffffff166114e4610e53565b73ffffffffffffffffffffffffffffffffffffffff161461153a576040517f08c379a00000000000000000000000000000000000000000000000000000000081526004016115319061218c565b60405180910390fd5b565b60008060009054906101000a900473ffffffffffffffffffffffffffffffffffffffff169050816000806101000a81548173ffffffffffffffffffffffffffffffffffffffff021916908373ffffffffffffffffffffffffffffffffffffffff1602179055508173ffffffffffffffffffffffffffffffffffffffff168173ffffffffffffffffffffffffffffffffffffffff167f8be0079c531659141344cd1fd0a4f28419497f9722a3daafe3b4186f6b6457e060405160405180910390a35050565b60007f000000000000000000000000000000000000000000000000000000000000000073ffffffffffffffffffffffffffffffffffffffff1663c5e1d7318a8a6040518363ffffffff1660e01b815260040161165d9291906121e8565b6020604051808303816000875af115801561167c573d6000803e3d6000fd5b505050506040513d601f19601f820116820180604052508101906116a09190612221565b9050836002600083815260200190815260200160002060020181905550336002600083815260200190815260200160002060060160006101000a81548173ffffffffffffffffffffffffffffffffffffffff021916908373ffffffffffffffffffffffffffffffffffffffff160217905550826002600083815260200190815260200160002060060160146101000a81548160ff021916908315150217905550866002600083815260200190815260200160002060000160006101000a81548173ffffffffffffffffffffffffffffffffffffffff021916908373ffffffffffffffffffffffffffffffffffffffff16021790555060016002600083815260200190815260200160002060060160156101000a81548160ff02191690831515021790555085856002600084815260200190815260200160002060010191826117e992919061242a565b5081426117f69190612009565b600260008381526020019081526020016000206004018190555098975050505050505050565b600033905090565b604051806101400160405280600073ffffffffffffffffffffffffffffffffffffffff16815260200160608152602001600081526020016000815260200160008152602001600073ffffffffffffffffffffffffffffffffffffffff168152602001600073ffffffffffffffffffffffffffffffffffffffff1681526020016000151581526020016000151581526020016000151581525090565b600080fd5b600080fd5b6000819050919050565b6118dc816118c9565b81146118e757600080fd5b50565b6000813590506118f9816118d3565b92915050565b600060208284031215611915576119146118bf565b5b6000611923848285016118ea565b91505092915050565b600073ffffffffffffffffffffffffffffffffffffffff82169050919050565b60006119578261192c565b9050919050565b6119678161194c565b811461197257600080fd5b50565b6000813590506119848161195e565b92915050565b600080604083850312156119a1576119a06118bf565b5b60006119af858286016118ea565b92505060206119c085828601611975565b9150509250929050565b6119d3816118c9565b82525050565b60006020820190506119ee60008301846119ca565b92915050565b60008060408385031215611a0b57611a0a6118bf565b5b6000611a19858286016118ea565b9250506020611a2a858286016118ea565b9150509250929050565b600080fd5b600080fd5b600080fd5b60008083601f840112611a5957611a58611a34565b5b8235905067ffffffffffffffff811115611a7657611a75611a39565b5b602083019150836001820283011115611a9257611a91611a3e565b5b9250929050565b600080600080600080600060a0888a031215611ab857611ab76118bf565b5b600088013567ffffffffffffffff811115611ad657611ad56118c4565b5b611ae28a828b01611a43565b97509750506020611af58a828b01611975565b955050604088013567ffffffffffffffff811115611b1657611b156118c4565b5b611b228a828b01611a43565b94509450506060611b358a828b016118ea565b9250506080611b468a828b016118ea565b91505092959891949750929550565b611b5e8161194c565b82525050565b6000602082019050611b796000830184611b55565b92915050565b60008060008060008060808789031215611b9c57611b9b6118bf565b5b600087013567ffffffffffffffff811115611bba57611bb96118c4565b5b611bc689828a01611a43565b9650965050602087013567ffffffffffffffff811115611be957611be86118c4565b5b611bf589828a01611a43565b94509450506040611c0889828a016118ea565b9250506060611c1989828a016118ea565b9150509295509295509295565b611c2f8161194c565b82525050565b600081519050919050565b600082825260208201905092915050565b60005b83811015611c6f578082015181840152602081019050611c54565b60008484015250505050565b6000601f19601f8301169050919050565b6000611c9782611c35565b611ca18185611c40565b9350611cb1818560208601611c51565b611cba81611c7b565b840191505092915050565b611cce816118c9565b82525050565b6000611cdf8261192c565b9050919050565b611cef81611cd4565b82525050565b60008115159050919050565b611d0a81611cf5565b82525050565b600061014083016000830151611d296000860182611c26565b5060208301518482036020860152611d418282611c8c565b9150506040830151611d566040860182611cc5565b506060830151611d696060860182611cc5565b506080830151611d7c6080860182611cc5565b5060a0830151611d8f60a0860182611c26565b5060c0830151611da260c0860182611ce6565b5060e0830151611db560e0860182611d01565b50610100830151611dca610100860182611d01565b50610120830151611ddf610120860182611d01565b508091505092915050565b60006020820190508181036000830152611e048184611d10565b905092915050565b600060208284031215611e2257611e216118bf565b5b6000611e3084828501611975565b91505092915050565b6000604082019050611e4e6000830185611b55565b611e5b60208301846119ca565b9392505050565b611e6b81611cf5565b8114611e7657600080fd5b50565b600081519050611e8881611e62565b92915050565b600060208284031215611ea457611ea36118bf565b5b6000611eb284828501611e79565b91505092915050565b6000819050919050565b6000611ee0611edb611ed68461192c565b611ebb565b61192c565b9050919050565b6000611ef282611ec5565b9050919050565b6000611f0482611ee7565b9050919050565b611f1481611ef9565b82525050565b6000606082019050611f2f6000830186611b55565b611f3c6020830185611f0b565b611f4960408301846119ca565b949350505050565b6000606082019050611f666000830186611b55565b611f736020830185611b55565b611f8060408301846119ca565b949350505050565b6000604082019050611f9d6000830185611f0b565b611faa60208301846119ca565b9392505050565b6000604082019050611fc660008301856119ca565b611fd36020830184611b55565b9392505050565b7f4e487b7100000000000000000000000000000000000000000000000000000000600052601160045260246000fd5b6000612014826118c9565b915061201f836118c9565b925082820190508082111561203757612036611fda565b5b92915050565b7f4e487b7100000000000000000000000000000000000000000000000000000000600052602260045260246000fd5b6000600282049050600182168061208457607f821691505b6020821081036120975761209661203d565b5b50919050565b600082825260208201905092915050565b7f4f776e61626c653a206e6577206f776e657220697320746865207a65726f206160008201527f6464726573730000000000000000000000000000000000000000000000000000602082015250565b600061210a60268361209d565b9150612115826120ae565b604082019050919050565b60006020820190508181036000830152612139816120fd565b9050919050565b7f4f776e61626c653a2063616c6c6572206973206e6f7420746865206f776e6572600082015250565b600061217660208361209d565b915061218182612140565b602082019050919050565b600060208201905081810360008301526121a581612169565b9050919050565b82818337600083830152505050565b60006121c7838561209d565b93506121d48385846121ac565b6121dd83611c7b565b840190509392505050565b600060208201905081810360008301526122038184866121bb565b90509392505050565b60008151905061221b816118d3565b92915050565b600060208284031215612237576122366118bf565b5b60006122458482850161220c565b91505092915050565b600082905092915050565b7f4e487b7100000000000000000000000000000000000000000000000000000000600052604160045260246000fd5b60008190508160005260206000209050919050565b60006020601f8301049050919050565b600082821b905092915050565b6000600883026122ea7fffffffffffffffffffffffffffffffffffffffffffffffffffffffffffffffff826122ad565b6122f486836122ad565b95508019841693508086168417925050509392505050565b600061232761232261231d846118c9565b611ebb565b6118c9565b9050919050565b6000819050919050565b6123418361230c565b61235561234d8261232e565b8484546122ba565b825550505050565b600090565b61236a61235d565b612375818484612338565b505050565b5b818110156123995761238e600082612362565b60018101905061237b565b5050565b601f8211156123de576123af81612288565b6123b88461229d565b810160208510156123c7578190505b6123db6123d38561229d565b83018261237a565b50505b505050565b600082821c905092915050565b6000612401600019846008026123e3565b1980831691505092915050565b600061241a83836123f0565b9150826002028217905092915050565b612434838361224e565b67ffffffffffffffff81111561244d5761244c612259565b5b612457825461206c565b61246282828561239d565b6000601f831160018114612491576000841561247f578287013590505b612489858261240e565b8655506124f1565b601f19841661249f86612288565b60005b828110156124c7578489013582556001820191506020850194506020810190506124a2565b868310156124e457848901356124e0601f8916826123f0565b8355505b6001600288020188555050505b5050505050505056fea26469706673582212203720023cb67c892996546389205ad1d30c6d3c659c1b117e102947d64bf807f964736f6c63430008110033",
  "linkReferences": {},
  "deployedLinkReferences": {}
}