{
  "_format": "hh-sol-artifact-1",
  "contractName": "Auction",
  "sourceName": "contracts/Auction.sol",
  "abi": [
    {
      "inputs": [
        {
          "internalType": "contract ERC721Token",
          "name": "addr",
          "type": "address"
        }
      ],
      "stateMutability": "nonpayable",
      "type": "constructor"
    },
    {
      "inputs": [],
      "name": "AlreadyEnded",
      "type": "error"
    },
    {
      "inputs": [],
      "name": "Denied",
      "type": "error"
    },
    {
      "inputs": [],
      "name": "Ended",
      "type": "error"
    },
    {
      "inputs": [],
      "name": "NotAuthorised",
      "type": "error"
    },
    {
      "inputs": [],
      "name": "NotStarted",
      "type": "error"
    },
    {
      "inputs": [],
      "name": "TimeHasNotFinished",
      "type": "error"
    },
    {
      "inputs": [
        {
          "internalType": "uint256",
          "name": "amount",
          "type": "uint256"
        },
        {
          "internalType": "uint256",
          "name": "min_price",
          "type": "uint256"
        },
        {
          "internalType": "uint256",
          "name": "starting_Price",
          "type": "uint256"
        }
      ],
      "name": "WhilePurchasing",
      "type": "error"
    },
    {
      "anonymous": false,
      "inputs": [
        {
          "indexed": true,
          "internalType": "address",
          "name": "previousOwner",
          "type": "address"
        },
        {
          "indexed": true,
          "internalType": "address",
          "name": "newOwner",
          "type": "address"
        }
      ],
      "name": "OwnershipTransferred",
      "type": "event"
    },
    {
      "anonymous": false,
      "inputs": [
        {
          "indexed": true,
          "internalType": "address",
          "name": "auctioner",
          "type": "address"
        },
        {
          "indexed": true,
          "internalType": "address",
          "name": "buyer",
          "type": "address"
        },
        {
          "indexed": true,
          "internalType": "uint256",
          "name": "Token_id",
          "type": "uint256"
        },
        {
          "indexed": false,
          "internalType": "uint256",
          "name": "amount",
          "type": "uint256"
        }
      ],
      "name": "boughtAuction",
      "type": "event"
    },
    {
      "anonymous": false,
      "inputs": [
        {
          "indexed": true,
          "internalType": "address",
          "name": "auctioner",
          "type": "address"
        },
        {
          "indexed": true,
          "internalType": "uint256",
          "name": "minimum_Price",
          "type": "uint256"
        },
        {
          "indexed": true,
          "internalType": "uint256",
          "name": "Token_id",
          "type": "uint256"
        },
        {
          "indexed": false,
          "internalType": "uint256",
          "name": "ending_Date",
          "type": "uint256"
        }
      ],
      "name": "soldAuctionEth",
      "type": "event"
    },
    {
      "anonymous": false,
      "inputs": [
        {
          "indexed": true,
          "internalType": "address",
          "name": "auctioner",
          "type": "address"
        },
        {
          "indexed": true,
          "internalType": "uint256",
          "name": "minimum_Price",
          "type": "uint256"
        },
        {
          "indexed": true,
          "internalType": "uint256",
          "name": "Token_id",
          "type": "uint256"
        },
        {
          "indexed": false,
          "internalType": "uint256",
          "name": "ending_Date",
          "type": "uint256"
        },
        {
          "indexed": false,
          "internalType": "address",
          "name": "tokenAddress",
          "type": "address"
        }
      ],
      "name": "soldAuctionToken",
      "type": "event"
    },
    {
      "inputs": [
        {
          "internalType": "uint256",
          "name": "token_id",
          "type": "uint256"
        }
      ],
      "name": "SubmitItem",
      "outputs": [],
      "stateMutability": "nonpayable",
      "type": "function"
    },
    {
      "inputs": [
        {
          "internalType": "uint256",
          "name": "Token_id",
          "type": "uint256"
        }
      ],
      "name": "getAuctionDetails",
      "outputs": [
        {
          "components": [
            {
              "internalType": "address",
              "name": "tokenAddress",
              "type": "address"
            },
            {
              "internalType": "string",
              "name": "name",
              "type": "string"
            },
            {
              "internalType": "uint256",
              "name": "startingPrice",
              "type": "uint256"
            },
            {
              "internalType": "uint256",
              "name": "max_Price",
              "type": "uint256"
            },
            {
              "internalType": "uint256",
              "name": "EndingDate",
              "type": "uint256"
            },
            {
              "internalType": "address",
              "name": "max_Pricer",
              "type": "address"
            },
            {
              "internalType": "address payable",
              "name": "auctionMaker",
              "type": "address"
            },
            {
              "internalType": "bool",
              "name": "eth",
              "type": "bool"
            },
            {
              "internalType": "bool",
              "name": "started",
              "type": "bool"
            },
            {
              "internalType": "bool",
              "name": "ended",
              "type": "bool"
            }
          ],
          "internalType": "struct Auction.AuctionDetails",
          "name": "",
          "type": "tuple"
        }
      ],
      "stateMutability": "view",
      "type": "function"
    },
    {
      "inputs": [
        {
          "internalType": "uint256",
          "name": "id",
          "type": "uint256"
        },
        {
          "internalType": "address",
          "name": "_add",
          "type": "address"
        }
      ],
      "name": "getInvestorDetails",
      "outputs": [
        {
          "internalType": "uint256",
          "name": "investorValue",
          "type": "uint256"
        }
      ],
      "stateMutability": "view",
      "type": "function"
    },
    {
      "inputs": [
        {
          "internalType": "uint256",
          "name": "token_id",
          "type": "uint256"
        },
        {
          "internalType": "uint256",
          "name": "amount",
          "type": "uint256"
        }
      ],
      "name": "getTheItem",
      "outputs": [],
      "stateMutability": "payable",
      "type": "function"
    },
    {
      "inputs": [],
      "name": "owner",
      "outputs": [
        {
          "internalType": "address",
          "name": "",
          "type": "address"
        }
      ],
      "stateMutability": "view",
      "type": "function"
    },
    {
      "inputs": [],
      "name": "renounceOwnership",
      "outputs": [],
      "stateMutability": "nonpayable",
      "type": "function"
    },
    {
      "inputs": [
        {
          "internalType": "string",
          "name": "_uri",
          "type": "string"
        },
        {
          "internalType": "string",
          "name": "_name",
          "type": "string"
        },
        {
          "internalType": "uint256",
          "name": "_amount",
          "type": "uint256"
        },
        {
          "internalType": "uint256",
          "name": "_endingDate",
          "type": "uint256"
        }
      ],
      "name": "sellToAuctionWithEth",
      "outputs": [],
      "stateMutability": "nonpayable",
      "type": "function"
    },
    {
      "inputs": [
        {
          "internalType": "string",
          "name": "_uri",
          "type": "string"
        },
        {
          "internalType": "address",
          "name": "_tokenAddress",
          "type": "address"
        },
        {
          "internalType": "string",
          "name": "_name",
          "type": "string"
        },
        {
          "internalType": "uint256",
          "name": "_amount",
          "type": "uint256"
        },
        {
          "internalType": "uint256",
          "name": "_endingDate",
          "type": "uint256"
        }
      ],
      "name": "sellToAuctionWithToken",
      "outputs": [],
      "stateMutability": "nonpayable",
      "type": "function"
    },
    {
      "inputs": [
        {
          "internalType": "uint256",
          "name": "amount",
          "type": "uint256"
        }
      ],
      "name": "sendEth",
      "outputs": [],
      "stateMutability": "nonpayable",
      "type": "function"
    },
    {
      "inputs": [
        {
          "internalType": "uint256",
          "name": "Token_id",
          "type": "uint256"
        }
      ],
      "name": "takeAmountFromAuction",
      "outputs": [],
      "stateMutability": "nonpayable",
      "type": "function"
    },
    {
      "inputs": [
        {
          "internalType": "address",
          "name": "newOwner",
          "type": "address"
        }
      ],
      "name": "transferOwnership",
      "outputs": [],
      "stateMutability": "nonpayable",
      "type": "function"
    }
  ],
  "bytecode": "0x60a06040523480156200001157600080fd5b5060405162002643380380620026438339818101604052810190620000379190620001dc565b620000576200004b6200009260201b60201c565b6200009a60201b60201c565b8073ffffffffffffffffffffffffffffffffffffffff1660808173ffffffffffffffffffffffffffffffffffffffff1681525050506200020e565b600033905090565b60008060009054906101000a900473ffffffffffffffffffffffffffffffffffffffff169050816000806101000a81548173ffffffffffffffffffffffffffffffffffffffff021916908373ffffffffffffffffffffffffffffffffffffffff1602179055508173ffffffffffffffffffffffffffffffffffffffff168173ffffffffffffffffffffffffffffffffffffffff167f8be0079c531659141344cd1fd0a4f28419497f9722a3daafe3b4186f6b6457e060405160405180910390a35050565b600080fd5b600073ffffffffffffffffffffffffffffffffffffffff82169050919050565b6000620001908262000163565b9050919050565b6000620001a48262000183565b9050919050565b620001b68162000197565b8114620001c257600080fd5b50565b600081519050620001d681620001ab565b92915050565b600060208284031215620001f557620001f46200015e565b5b60006200020584828501620001c5565b91505092915050565b60805161240b62000238600039600081816108a50152818161095d01526114a8015261240b6000f3fe60806040526004361061009c5760003560e01c806377fdc3801161006457806377fdc380146101635780638da5cb5b1461018c578063bc99e5f2146101b7578063cfc54848146101e0578063f20e5e3514610209578063f2fde38b146102465761009c565b806303b41421146100a1578063126f2d3c146100ca5780632a0540e91461010757806368ec434314610123578063715018a61461014c575b600080fd5b3480156100ad57600080fd5b506100c860048036038101906100c391906117a3565b61026f565b005b3480156100d657600080fd5b506100f160048036038101906100ec919061182e565b610534565b6040516100fe919061187d565b60405180910390f35b610121600480360381019061011c9190611898565b61058f565b005b34801561012f57600080fd5b5061014a600480360381019061014591906117a3565b610712565b005b34801561015857600080fd5b50610161610c39565b005b34801561016f57600080fd5b5061018a6004803603810190610185919061193d565b610c4d565b005b34801561019857600080fd5b506101a1610cc9565b6040516101ae9190611a08565b60405180910390f35b3480156101c357600080fd5b506101de60048036038101906101d99190611a23565b610cf2565b005b3480156101ec57600080fd5b50610207600480360381019061020291906117a3565b610d6c565b005b34801561021557600080fd5b50610230600480360381019061022b91906117a3565b610dbe565b60405161023d9190611c8e565b60405180910390f35b34801561025257600080fd5b5061026d60048036038101906102689190611cb0565b610fef565b005b42600260008381526020019081526020016000206004015411156102bf576040517fe115aacc00000000000000000000000000000000000000000000000000000000815260040160405180910390fd5b3373ffffffffffffffffffffffffffffffffffffffff166002600083815260200190815260200160002060050160009054906101000a900473ffffffffffffffffffffffffffffffffffffffff1673ffffffffffffffffffffffffffffffffffffffff160361035a576040517fe3372e2d00000000000000000000000000000000000000000000000000000000815260040160405180910390fd5b60006001600083815260200190815260200160002060003373ffffffffffffffffffffffffffffffffffffffff1673ffffffffffffffffffffffffffffffffffffffff16815260200190815260200160002054905060006001600084815260200190815260200160002060003373ffffffffffffffffffffffffffffffffffffffff1673ffffffffffffffffffffffffffffffffffffffff168152602001908152602001600020819055506002600083815260200190815260200160002060060160149054906101000a900460ff161561047a573373ffffffffffffffffffffffffffffffffffffffff166108fc829081150290604051600060405180830381858888f19350505050158015610474573d6000803e3d6000fd5b50610530565b6002600083815260200190815260200160002060000160009054906101000a900473ffffffffffffffffffffffffffffffffffffffff1673ffffffffffffffffffffffffffffffffffffffff1663a9059cbb33836040518363ffffffff1660e01b81526004016104eb929190611cdd565b6020604051808303816000875af115801561050a573d6000803e3d6000fd5b505050506040513d601f19601f8201168201806040525081019061052e9190611d32565b505b5050565b60006001600084815260200190815260200160002060008373ffffffffffffffffffffffffffffffffffffffff1673ffffffffffffffffffffffffffffffffffffffff16815260200190815260200160002054905092915050565b60006002600084815260200190815260200160002090508060060160169054906101000a900460ff16156105ef576040517f477383f300000000000000000000000000000000000000000000000000000000815260040160405180910390fd5b8060060160159054906101000a900460ff16610637576040517f6f312cbd00000000000000000000000000000000000000000000000000000000815260040160405180910390fd5b8060040154421115610675576040517f4f9ebfb700000000000000000000000000000000000000000000000000000000815260040160405180910390fd5b8060060160149054906101000a900460ff16156106ad576106a834848360060160149054906101000a900460ff16611072565b6106ca565b6106c982848360060160149054906101000a900460ff16611072565b5b338160050160006101000a81548173ffffffffffffffffffffffffffffffffffffffff021916908373ffffffffffffffffffffffffffffffffffffffff160217905550505050565b60006002600083815260200190815260200160002090504281600401541115610767576040517fe115aacc00000000000000000000000000000000000000000000000000000000815260040160405180910390fd5b8060060160169054906101000a900460ff16156107b0576040517f477383f300000000000000000000000000000000000000000000000000000000815260040160405180910390fd5b3373ffffffffffffffffffffffffffffffffffffffff168160050160009054906101000a900473ffffffffffffffffffffffffffffffffffffffff1673ffffffffffffffffffffffffffffffffffffffff161415801561086057503373ffffffffffffffffffffffffffffffffffffffff168160060160009054906101000a900473ffffffffffffffffffffffffffffffffffffffff1673ffffffffffffffffffffffffffffffffffffffff1614155b15610897576040517f1648fd0100000000000000000000000000000000000000000000000000000000815260040160405180910390fd5b600081600301540361095b577f000000000000000000000000000000000000000000000000000000000000000073ffffffffffffffffffffffffffffffffffffffff166323b872dd308360060160009054906101000a900473ffffffffffffffffffffffffffffffffffffffff16856040518463ffffffff1660e01b815260040161092493929190611dbe565b600060405180830381600087803b15801561093e57600080fd5b505af1158015610952573d6000803e3d6000fd5b50505050610c35565b7f000000000000000000000000000000000000000000000000000000000000000073ffffffffffffffffffffffffffffffffffffffff166323b872dd308360050160009054906101000a900473ffffffffffffffffffffffffffffffffffffffff16856040518463ffffffff1660e01b81526004016109dc93929190611df5565b600060405180830381600087803b1580156109f657600080fd5b505af1158015610a0a573d6000803e3d6000fd5b5050505060018160060160166101000a81548160ff0219169083151502179055508060060160149054906101000a900460ff1615610ab6578060060160009054906101000a900473ffffffffffffffffffffffffffffffffffffffff1673ffffffffffffffffffffffffffffffffffffffff166108fc82600301549081150290604051600060405180830381858888f19350505050158015610ab0573d6000803e3d6000fd5b50610b82565b8060000160009054906101000a900473ffffffffffffffffffffffffffffffffffffffff1673ffffffffffffffffffffffffffffffffffffffff1663a9059cbb8260060160009054906101000a900473ffffffffffffffffffffffffffffffffffffffff1683600301546040518363ffffffff1660e01b8152600401610b3d929190611e2c565b6020604051808303816000875af1158015610b5c573d6000803e3d6000fd5b505050506040513d601f19601f82011682018060405250810190610b809190611d32565b505b818160050160009054906101000a900473ffffffffffffffffffffffffffffffffffffffff1673ffffffffffffffffffffffffffffffffffffffff168260060160009054906101000a900473ffffffffffffffffffffffffffffffffffffffff1673ffffffffffffffffffffffffffffffffffffffff167f87d26c2297ce9701416c499a6c8094149127dc493d492afc607feab8122ddc688460030154604051610c2c919061187d565b60405180910390a45b5050565b610c41611362565b610c4b60006113e0565b565b6000610c608888888888886000896114a4565b905080833373ffffffffffffffffffffffffffffffffffffffff167f6fb2f5cfc8677a73d10bc276305e3b2b4f2f5e2794882ecb1651c9c5dcbbccfe8542610ca89190611e84565b8a604051610cb7929190611eb8565b60405180910390a45050505050505050565b60008060009054906101000a900473ffffffffffffffffffffffffffffffffffffffff16905090565b6000610d06878760008888886001896114a4565b905080833373ffffffffffffffffffffffffffffffffffffffff167fd0285122029514b97b382598831c25372e990bfb77e106be6ee6959778e30f768542610d4e9190611e84565b604051610d5b919061187d565b60405180910390a450505050505050565b610d74611362565b3373ffffffffffffffffffffffffffffffffffffffff166108fc829081150290604051600060405180830381858888f19350505050158015610dba573d6000803e3d6000fd5b5050565b610dc66116c8565b60026000838152602001908152602001600020604051806101400160405290816000820160009054906101000a900473ffffffffffffffffffffffffffffffffffffffff1673ffffffffffffffffffffffffffffffffffffffff1673ffffffffffffffffffffffffffffffffffffffff168152602001600182018054610e4b90611f10565b80601f0160208091040260200160405190810160405280929190818152602001828054610e7790611f10565b8015610ec45780601f10610e9957610100808354040283529160200191610ec4565b820191906000526020600020905b815481529060010190602001808311610ea757829003601f168201915b505050505081526020016002820154815260200160038201548152602001600482015481526020016005820160009054906101000a900473ffffffffffffffffffffffffffffffffffffffff1673ffffffffffffffffffffffffffffffffffffffff1673ffffffffffffffffffffffffffffffffffffffff1681526020016006820160009054906101000a900473ffffffffffffffffffffffffffffffffffffffff1673ffffffffffffffffffffffffffffffffffffffff1673ffffffffffffffffffffffffffffffffffffffff1681526020016006820160149054906101000a900460ff161515151581526020016006820160159054906101000a900460ff161515151581526020016006820160169054906101000a900460ff1615151515815250509050919050565b610ff7611362565b600073ffffffffffffffffffffffffffffffffffffffff168173ffffffffffffffffffffffffffffffffffffffff1603611066576040517f08c379a000000000000000000000000000000000000000000000000000000000815260040161105d90611fc4565b60405180910390fd5b61106f816113e0565b50565b600060026000848152602001908152602001600020905060006001600085815260200190815260200160002060003373ffffffffffffffffffffffffffffffffffffffff1673ffffffffffffffffffffffffffffffffffffffff16815260200190815260200160002054036111375780600201548410156111365783816003015482600201546040517fea16b03a00000000000000000000000000000000000000000000000000000000815260040161112d93929190611fe4565b60405180910390fd5b5b8060030154846001600086815260200190815260200160002060003373ffffffffffffffffffffffffffffffffffffffff1673ffffffffffffffffffffffffffffffffffffffff168152602001908152602001600020546111989190611e84565b116111e65783816003015482600201546040517fea16b03a0000000000000000000000000000000000000000000000000000000081526004016111dd93929190611fe4565b60405180910390fd5b81611291578060000160009054906101000a900473ffffffffffffffffffffffffffffffffffffffff1673ffffffffffffffffffffffffffffffffffffffff166323b872dd3330876040518463ffffffff1660e01b815260040161124c93929190611df5565b6020604051808303816000875af115801561126b573d6000803e3d6000fd5b505050506040513d601f19601f8201168201806040525081019061128f9190611d32565b505b836001600085815260200190815260200160002060003373ffffffffffffffffffffffffffffffffffffffff1673ffffffffffffffffffffffffffffffffffffffff168152602001908152602001600020546112ed9190611e84565b8160030181905550836001600085815260200190815260200160002060003373ffffffffffffffffffffffffffffffffffffffff1673ffffffffffffffffffffffffffffffffffffffff16815260200190815260200160002060008282546113559190611e84565b9250508190555050505050565b61136a6116c0565b73ffffffffffffffffffffffffffffffffffffffff16611388610cc9565b73ffffffffffffffffffffffffffffffffffffffff16146113de576040517f08c379a00000000000000000000000000000000000000000000000000000000081526004016113d590612067565b60405180910390fd5b565b60008060009054906101000a900473ffffffffffffffffffffffffffffffffffffffff169050816000806101000a81548173ffffffffffffffffffffffffffffffffffffffff021916908373ffffffffffffffffffffffffffffffffffffffff1602179055508173ffffffffffffffffffffffffffffffffffffffff168173ffffffffffffffffffffffffffffffffffffffff167f8be0079c531659141344cd1fd0a4f28419497f9722a3daafe3b4186f6b6457e060405160405180910390a35050565b60007f000000000000000000000000000000000000000000000000000000000000000073ffffffffffffffffffffffffffffffffffffffff1663c5e1d7318a8a6040518363ffffffff1660e01b81526004016115019291906120c3565b6020604051808303816000875af1158015611520573d6000803e3d6000fd5b505050506040513d601f19601f8201168201806040525081019061154491906120fc565b9050836002600083815260200190815260200160002060020181905550336002600083815260200190815260200160002060060160006101000a81548173ffffffffffffffffffffffffffffffffffffffff021916908373ffffffffffffffffffffffffffffffffffffffff160217905550826002600083815260200190815260200160002060060160146101000a81548160ff021916908315150217905550866002600083815260200190815260200160002060000160006101000a81548173ffffffffffffffffffffffffffffffffffffffff021916908373ffffffffffffffffffffffffffffffffffffffff16021790555060016002600083815260200190815260200160002060060160156101000a81548160ff021916908315150217905550858560026000848152602001908152602001600020600101918261168d929190612305565b50814261169a9190611e84565b600260008381526020019081526020016000206004018190555098975050505050505050565b600033905090565b604051806101400160405280600073ffffffffffffffffffffffffffffffffffffffff16815260200160608152602001600081526020016000815260200160008152602001600073ffffffffffffffffffffffffffffffffffffffff168152602001600073ffffffffffffffffffffffffffffffffffffffff1681526020016000151581526020016000151581526020016000151581525090565b600080fd5b600080fd5b6000819050919050565b6117808161176d565b811461178b57600080fd5b50565b60008135905061179d81611777565b92915050565b6000602082840312156117b9576117b8611763565b5b60006117c78482850161178e565b91505092915050565b600073ffffffffffffffffffffffffffffffffffffffff82169050919050565b60006117fb826117d0565b9050919050565b61180b816117f0565b811461181657600080fd5b50565b60008135905061182881611802565b92915050565b6000806040838503121561184557611844611763565b5b60006118538582860161178e565b925050602061186485828601611819565b9150509250929050565b6118778161176d565b82525050565b6000602082019050611892600083018461186e565b92915050565b600080604083850312156118af576118ae611763565b5b60006118bd8582860161178e565b92505060206118ce8582860161178e565b9150509250929050565b600080fd5b600080fd5b600080fd5b60008083601f8401126118fd576118fc6118d8565b5b8235905067ffffffffffffffff81111561191a576119196118dd565b5b602083019150836001820283011115611936576119356118e2565b5b9250929050565b600080600080600080600060a0888a03121561195c5761195b611763565b5b600088013567ffffffffffffffff81111561197a57611979611768565b5b6119868a828b016118e7565b975097505060206119998a828b01611819565b955050604088013567ffffffffffffffff8111156119ba576119b9611768565b5b6119c68a828b016118e7565b945094505060606119d98a828b0161178e565b92505060806119ea8a828b0161178e565b91505092959891949750929550565b611a02816117f0565b82525050565b6000602082019050611a1d60008301846119f9565b92915050565b60008060008060008060808789031215611a4057611a3f611763565b5b600087013567ffffffffffffffff811115611a5e57611a5d611768565b5b611a6a89828a016118e7565b9650965050602087013567ffffffffffffffff811115611a8d57611a8c611768565b5b611a9989828a016118e7565b94509450506040611aac89828a0161178e565b9250506060611abd89828a0161178e565b9150509295509295509295565b611ad3816117f0565b82525050565b600081519050919050565b600082825260208201905092915050565b60005b83811015611b13578082015181840152602081019050611af8565b60008484015250505050565b6000601f19601f8301169050919050565b6000611b3b82611ad9565b611b458185611ae4565b9350611b55818560208601611af5565b611b5e81611b1f565b840191505092915050565b611b728161176d565b82525050565b6000611b83826117d0565b9050919050565b611b9381611b78565b82525050565b60008115159050919050565b611bae81611b99565b82525050565b600061014083016000830151611bcd6000860182611aca565b5060208301518482036020860152611be58282611b30565b9150506040830151611bfa6040860182611b69565b506060830151611c0d6060860182611b69565b506080830151611c206080860182611b69565b5060a0830151611c3360a0860182611aca565b5060c0830151611c4660c0860182611b8a565b5060e0830151611c5960e0860182611ba5565b50610100830151611c6e610100860182611ba5565b50610120830151611c83610120860182611ba5565b508091505092915050565b60006020820190508181036000830152611ca88184611bb4565b905092915050565b600060208284031215611cc657611cc5611763565b5b6000611cd484828501611819565b91505092915050565b6000604082019050611cf260008301856119f9565b611cff602083018461186e565b9392505050565b611d0f81611b99565b8114611d1a57600080fd5b50565b600081519050611d2c81611d06565b92915050565b600060208284031215611d4857611d47611763565b5b6000611d5684828501611d1d565b91505092915050565b6000819050919050565b6000611d84611d7f611d7a846117d0565b611d5f565b6117d0565b9050919050565b6000611d9682611d69565b9050919050565b6000611da882611d8b565b9050919050565b611db881611d9d565b82525050565b6000606082019050611dd360008301866119f9565b611de06020830185611daf565b611ded604083018461186e565b949350505050565b6000606082019050611e0a60008301866119f9565b611e1760208301856119f9565b611e24604083018461186e565b949350505050565b6000604082019050611e416000830185611daf565b611e4e602083018461186e565b9392505050565b7f4e487b7100000000000000000000000000000000000000000000000000000000600052601160045260246000fd5b6000611e8f8261176d565b9150611e9a8361176d565b9250828201905080821115611eb257611eb1611e55565b5b92915050565b6000604082019050611ecd600083018561186e565b611eda60208301846119f9565b9392505050565b7f4e487b7100000000000000000000000000000000000000000000000000000000600052602260045260246000fd5b60006002820490506001821680611f2857607f821691505b602082108103611f3b57611f3a611ee1565b5b50919050565b600082825260208201905092915050565b7f4f776e61626c653a206e6577206f776e657220697320746865207a65726f206160008201527f6464726573730000000000000000000000000000000000000000000000000000602082015250565b6000611fae602683611f41565b9150611fb982611f52565b604082019050919050565b60006020820190508181036000830152611fdd81611fa1565b9050919050565b6000606082019050611ff9600083018661186e565b612006602083018561186e565b612013604083018461186e565b949350505050565b7f4f776e61626c653a2063616c6c6572206973206e6f7420746865206f776e6572600082015250565b6000612051602083611f41565b915061205c8261201b565b602082019050919050565b6000602082019050818103600083015261208081612044565b9050919050565b82818337600083830152505050565b60006120a28385611f41565b93506120af838584612087565b6120b883611b1f565b840190509392505050565b600060208201905081810360008301526120de818486612096565b90509392505050565b6000815190506120f681611777565b92915050565b60006020828403121561211257612111611763565b5b6000612120848285016120e7565b91505092915050565b600082905092915050565b7f4e487b7100000000000000000000000000000000000000000000000000000000600052604160045260246000fd5b60008190508160005260206000209050919050565b60006020601f8301049050919050565b600082821b905092915050565b6000600883026121c57fffffffffffffffffffffffffffffffffffffffffffffffffffffffffffffffff82612188565b6121cf8683612188565b95508019841693508086168417925050509392505050565b60006122026121fd6121f88461176d565b611d5f565b61176d565b9050919050565b6000819050919050565b61221c836121e7565b61223061222882612209565b848454612195565b825550505050565b600090565b612245612238565b612250818484612213565b505050565b5b818110156122745761226960008261223d565b600181019050612256565b5050565b601f8211156122b95761228a81612163565b61229384612178565b810160208510156122a2578190505b6122b66122ae85612178565b830182612255565b50505b505050565b600082821c905092915050565b60006122dc600019846008026122be565b1980831691505092915050565b60006122f583836122cb565b9150826002028217905092915050565b61230f8383612129565b67ffffffffffffffff81111561232857612327612134565b5b6123328254611f10565b61233d828285612278565b6000601f83116001811461236c576000841561235a578287013590505b61236485826122e9565b8655506123cc565b601f19841661237a86612163565b60005b828110156123a25784890135825560018201915060208501945060208101905061237d565b868310156123bf57848901356123bb601f8916826122cb565b8355505b6001600288020188555050505b5050505050505056fea264697066735822122035b08a0b5f72941496853fcec5d779b0fc1572cca2f29fd35cd0f12ea81b870c64736f6c63430008110033",
  "linkReferences": {},
  "deployedLinkReferences": {}
}