{
  "_format": "hh-sol-artifact-1",
  "contractName": "ERC721Token",
  "sourceName": "contracts/ERC721Token.sol",
  "abi": [
    {
      "inputs": [],
      "stateMutability": "nonpayable",
      "type": "constructor"
    },
    {
      "anonymous": false,
      "inputs": [
        {
          "indexed": true,
          "internalType": "address",
          "name": "owner",
          "type": "address"
        },
        {
          "indexed": true,
          "internalType": "address",
          "name": "approved",
          "type": "address"
        },
        {
          "indexed": true,
          "internalType": "uint256",
          "name": "tokenId",
          "type": "uint256"
        }
      ],
      "name": "Approval",
      "type": "event"
    },
    {
      "anonymous": false,
      "inputs": [
        {
          "indexed": true,
          "internalType": "address",
          "name": "owner",
          "type": "address"
        },
        {
          "indexed": true,
          "internalType": "address",
          "name": "operator",
          "type": "address"
        },
        {
          "indexed": false,
          "internalType": "bool",
          "name": "approved",
          "type": "bool"
        }
      ],
      "name": "ApprovalForAll",
      "type": "event"
    },
    {
      "anonymous": false,
      "inputs": [
        {
          "indexed": true,
          "internalType": "address",
          "name": "from",
          "type": "address"
        },
        {
          "indexed": true,
          "internalType": "address",
          "name": "to",
          "type": "address"
        },
        {
          "indexed": true,
          "internalType": "uint256",
          "name": "tokenId",
          "type": "uint256"
        }
      ],
      "name": "Transfer",
      "type": "event"
    },
    {
      "inputs": [
        {
          "internalType": "string",
          "name": "tokenURI",
          "type": "string"
        }
      ],
      "name": "Mint",
      "outputs": [
        {
          "internalType": "uint256",
          "name": "",
          "type": "uint256"
        }
      ],
      "stateMutability": "nonpayable",
      "type": "function"
    },
    {
      "inputs": [
        {
          "internalType": "address",
          "name": "to",
          "type": "address"
        },
        {
          "internalType": "uint256",
          "name": "tokenId",
          "type": "uint256"
        }
      ],
      "name": "approve",
      "outputs": [],
      "stateMutability": "nonpayable",
      "type": "function"
    },
    {
      "inputs": [
        {
          "internalType": "address",
          "name": "owner",
          "type": "address"
        }
      ],
      "name": "balanceOf",
      "outputs": [
        {
          "internalType": "uint256",
          "name": "",
          "type": "uint256"
        }
      ],
      "stateMutability": "view",
      "type": "function"
    },
    {
      "inputs": [
        {
          "internalType": "uint256",
          "name": "tokenId",
          "type": "uint256"
        }
      ],
      "name": "getApproved",
      "outputs": [
        {
          "internalType": "address",
          "name": "",
          "type": "address"
        }
      ],
      "stateMutability": "view",
      "type": "function"
    },
    {
      "inputs": [
        {
          "internalType": "address",
          "name": "owner",
          "type": "address"
        },
        {
          "internalType": "address",
          "name": "operator",
          "type": "address"
        }
      ],
      "name": "isApprovedForAll",
      "outputs": [
        {
          "internalType": "bool",
          "name": "",
          "type": "bool"
        }
      ],
      "stateMutability": "view",
      "type": "function"
    },
    {
      "inputs": [],
      "name": "name",
      "outputs": [
        {
          "internalType": "string",
          "name": "",
          "type": "string"
        }
      ],
      "stateMutability": "view",
      "type": "function"
    },
    {
      "inputs": [
        {
          "internalType": "uint256",
          "name": "tokenId",
          "type": "uint256"
        }
      ],
      "name": "ownerOf",
      "outputs": [
        {
          "internalType": "address",
          "name": "",
          "type": "address"
        }
      ],
      "stateMutability": "view",
      "type": "function"
    },
    {
      "inputs": [
        {
          "internalType": "address",
          "name": "from",
          "type": "address"
        },
        {
          "internalType": "address",
          "name": "to",
          "type": "address"
        },
        {
          "internalType": "uint256",
          "name": "tokenId",
          "type": "uint256"
        }
      ],
      "name": "safeTransferFrom",
      "outputs": [],
      "stateMutability": "nonpayable",
      "type": "function"
    },
    {
      "inputs": [
        {
          "internalType": "address",
          "name": "from",
          "type": "address"
        },
        {
          "internalType": "address",
          "name": "to",
          "type": "address"
        },
        {
          "internalType": "uint256",
          "name": "tokenId",
          "type": "uint256"
        },
        {
          "internalType": "bytes",
          "name": "data",
          "type": "bytes"
        }
      ],
      "name": "safeTransferFrom",
      "outputs": [],
      "stateMutability": "nonpayable",
      "type": "function"
    },
    {
      "inputs": [
        {
          "internalType": "address",
          "name": "operator",
          "type": "address"
        },
        {
          "internalType": "bool",
          "name": "approved",
          "type": "bool"
        }
      ],
      "name": "setApprovalForAll",
      "outputs": [],
      "stateMutability": "nonpayable",
      "type": "function"
    },
    {
      "inputs": [
        {
          "internalType": "bytes4",
          "name": "interfaceId",
          "type": "bytes4"
        }
      ],
      "name": "supportsInterface",
      "outputs": [
        {
          "internalType": "bool",
          "name": "",
          "type": "bool"
        }
      ],
      "stateMutability": "view",
      "type": "function"
    },
    {
      "inputs": [],
      "name": "symbol",
      "outputs": [
        {
          "internalType": "string",
          "name": "",
          "type": "string"
        }
      ],
      "stateMutability": "view",
      "type": "function"
    },
    {
      "inputs": [
        {
          "internalType": "uint256",
          "name": "tokenId",
          "type": "uint256"
        }
      ],
      "name": "tokenURI",
      "outputs": [
        {
          "internalType": "string",
          "name": "",
          "type": "string"
        }
      ],
      "stateMutability": "view",
      "type": "function"
    },
    {
      "inputs": [],
      "name": "totalSupply",
      "outputs": [
        {
          "internalType": "uint256",
          "name": "",
          "type": "uint256"
        }
      ],
      "stateMutability": "view",
      "type": "function"
    },
    {
      "inputs": [
        {
          "internalType": "address",
          "name": "from",
          "type": "address"
        },
        {
          "internalType": "address",
          "name": "to",
          "type": "address"
        },
        {
          "internalType": "uint256",
          "name": "tokenId",
          "type": "uint256"
        }
      ],
      "name": "transferFrom",
      "outputs": [],
      "stateMutability": "nonpayable",
      "type": "function"
    }
  ],
  "bytecode": "0x60806040523480156200001157600080fd5b506040518060400160405280600681526020017f41636879757400000000000000000000000000000000000000000000000000008152506040518060400160405280600581526020017f415f43523700000000000000000000000000000000000000000000000000000081525081600090816200008f919062000324565b508060019081620000a1919062000324565b5050506200040b565b600081519050919050565b7f4e487b7100000000000000000000000000000000000000000000000000000000600052604160045260246000fd5b7f4e487b7100000000000000000000000000000000000000000000000000000000600052602260045260246000fd5b600060028204905060018216806200012c57607f821691505b602082108103620001425762000141620000e4565b5b50919050565b60008190508160005260206000209050919050565b60006020601f8301049050919050565b600082821b905092915050565b600060088302620001ac7fffffffffffffffffffffffffffffffffffffffffffffffffffffffffffffffff826200016d565b620001b886836200016d565b95508019841693508086168417925050509392505050565b6000819050919050565b6000819050919050565b600062000205620001ff620001f984620001d0565b620001da565b620001d0565b9050919050565b6000819050919050565b6200022183620001e4565b6200023962000230826200020c565b8484546200017a565b825550505050565b600090565b6200025062000241565b6200025d81848462000216565b505050565b5b8181101562000285576200027960008262000246565b60018101905062000263565b5050565b601f821115620002d4576200029e8162000148565b620002a9846200015d565b81016020851015620002b9578190505b620002d1620002c8856200015d565b83018262000262565b50505b505050565b600082821c905092915050565b6000620002f960001984600802620002d9565b1980831691505092915050565b6000620003148383620002e6565b9150826002028217905092915050565b6200032f82620000aa565b67ffffffffffffffff8111156200034b576200034a620000b5565b5b62000357825462000113565b6200036482828562000289565b600060209050601f8311600181146200039c576000841562000387578287015190505b62000393858262000306565b86555062000403565b601f198416620003ac8662000148565b60005b82811015620003d657848901518255600182019150602085019450602081019050620003af565b86831015620003f65784890151620003f2601f891682620002e6565b8355505b6001600288020188555050505b505050505050565b612c2d806200041b6000396000f3fe608060405234801561001057600080fd5b50600436106100f55760003560e01c80636352211e11610097578063b88d4fde11610066578063b88d4fde14610284578063c5e1d731146102a0578063c87b56dd146102d0578063e985e9c514610300576100f5565b80636352211e146101ea57806370a082311461021a57806395d89b411461024a578063a22cb46514610268576100f5565b8063095ea7b3116100d3578063095ea7b31461017857806318160ddd1461019457806323b872dd146101b257806342842e0e146101ce576100f5565b806301ffc9a7146100fa57806306fdde031461012a578063081812fc14610148575b600080fd5b610114600480360381019061010f9190611ad5565b610330565b6040516101219190611b1d565b60405180910390f35b610132610412565b60405161013f9190611bc8565b60405180910390f35b610162600480360381019061015d9190611c20565b6104a4565b60405161016f9190611c8e565b60405180910390f35b610192600480360381019061018d9190611cd5565b6104ea565b005b61019c610601565b6040516101a99190611d24565b60405180910390f35b6101cc60048036038101906101c79190611d3f565b610612565b005b6101e860048036038101906101e39190611d3f565b610672565b005b61020460048036038101906101ff9190611c20565b610692565b6040516102119190611c8e565b60405180910390f35b610234600480360381019061022f9190611d92565b610718565b6040516102419190611d24565b60405180910390f35b6102526107cf565b60405161025f9190611bc8565b60405180910390f35b610282600480360381019061027d9190611deb565b610861565b005b61029e60048036038101906102999190611f60565b610877565b005b6102ba60048036038101906102b59190612043565b6108d9565b6040516102c79190611d24565b60405180910390f35b6102ea60048036038101906102e59190611c20565b610955565b6040516102f79190611bc8565b60405180910390f35b61031a60048036038101906103159190612090565b610a67565b6040516103279190611b1d565b60405180910390f35b60007f80ac58cd000000000000000000000000000000000000000000000000000000007bffffffffffffffffffffffffffffffffffffffffffffffffffffffff1916827bffffffffffffffffffffffffffffffffffffffffffffffffffffffff191614806103fb57507f5b5e139f000000000000000000000000000000000000000000000000000000007bffffffffffffffffffffffffffffffffffffffffffffffffffffffff1916827bffffffffffffffffffffffffffffffffffffffffffffffffffffffff1916145b8061040b575061040a82610afb565b5b9050919050565b606060008054610421906120ff565b80601f016020809104026020016040519081016040528092919081815260200182805461044d906120ff565b801561049a5780601f1061046f5761010080835404028352916020019161049a565b820191906000526020600020905b81548152906001019060200180831161047d57829003601f168201915b5050505050905090565b60006104af82610b65565b6004600083815260200190815260200160002060009054906101000a900473ffffffffffffffffffffffffffffffffffffffff169050919050565b60006104f582610692565b90508073ffffffffffffffffffffffffffffffffffffffff168373ffffffffffffffffffffffffffffffffffffffff1603610565576040517f08c379a000000000000000000000000000000000000000000000000000000000815260040161055c906121a2565b60405180910390fd5b8073ffffffffffffffffffffffffffffffffffffffff16610584610bb0565b73ffffffffffffffffffffffffffffffffffffffff1614806105b357506105b2816105ad610bb0565b610a67565b5b6105f2576040517f08c379a00000000000000000000000000000000000000000000000000000000081526004016105e990612234565b60405180910390fd5b6105fc8383610bb8565b505050565b600061060d6007610c71565b905090565b61062361061d610bb0565b82610c7f565b610662576040517f08c379a0000000000000000000000000000000000000000000000000000000008152600401610659906122c6565b60405180910390fd5b61066d838383610d14565b505050565b61068d83838360405180602001604052806000815250610877565b505050565b60008061069e8361100d565b9050600073ffffffffffffffffffffffffffffffffffffffff168173ffffffffffffffffffffffffffffffffffffffff160361070f576040517f08c379a000000000000000000000000000000000000000000000000000000000815260040161070690612332565b60405180910390fd5b80915050919050565b60008073ffffffffffffffffffffffffffffffffffffffff168273ffffffffffffffffffffffffffffffffffffffff1603610788576040517f08c379a000000000000000000000000000000000000000000000000000000000815260040161077f906123c4565b60405180910390fd5b600360008373ffffffffffffffffffffffffffffffffffffffff1673ffffffffffffffffffffffffffffffffffffffff168152602001908152602001600020549050919050565b6060600180546107de906120ff565b80601f016020809104026020016040519081016040528092919081815260200182805461080a906120ff565b80156108575780601f1061082c57610100808354040283529160200191610857565b820191906000526020600020905b81548152906001019060200180831161083a57829003601f168201915b5050505050905090565b61087361086c610bb0565b838361104a565b5050565b610888610882610bb0565b83610c7f565b6108c7576040517f08c379a00000000000000000000000000000000000000000000000000000000081526004016108be906122c6565b60405180910390fd5b6108d3848484846111b6565b50505050565b60006108e56007611212565b60006108f16007610c71565b90506108fd3382611228565b61094b8185858080601f016020809104026020016040519081016040528093929190818152602001838380828437600081840152601f19601f82011690508083019250505050505050611445565b8091505092915050565b606061096082610b65565b6000600660008481526020019081526020016000208054610980906120ff565b80601f01602080910402602001604051908101604052809291908181526020018280546109ac906120ff565b80156109f95780601f106109ce576101008083540402835291602001916109f9565b820191906000526020600020905b8154815290600101906020018083116109dc57829003601f168201915b505050505090506000610a0a6114b2565b90506000815103610a1f578192505050610a62565b600082511115610a54578082604051602001610a3c929190612420565b60405160208183030381529060405292505050610a62565b610a5d846114c9565b925050505b919050565b6000600560008473ffffffffffffffffffffffffffffffffffffffff1673ffffffffffffffffffffffffffffffffffffffff16815260200190815260200160002060008373ffffffffffffffffffffffffffffffffffffffff1673ffffffffffffffffffffffffffffffffffffffff16815260200190815260200160002060009054906101000a900460ff16905092915050565b60007f01ffc9a7000000000000000000000000000000000000000000000000000000007bffffffffffffffffffffffffffffffffffffffffffffffffffffffff1916827bffffffffffffffffffffffffffffffffffffffffffffffffffffffff1916149050919050565b610b6e81611531565b610bad576040517f08c379a0000000000000000000000000000000000000000000000000000000008152600401610ba490612332565b60405180910390fd5b50565b600033905090565b816004600083815260200190815260200160002060006101000a81548173ffffffffffffffffffffffffffffffffffffffff021916908373ffffffffffffffffffffffffffffffffffffffff160217905550808273ffffffffffffffffffffffffffffffffffffffff16610c2b83610692565b73ffffffffffffffffffffffffffffffffffffffff167f8c5be1e5ebec7d5bd14f71427d1e84f3dd0314c0f7b2291e5b200ac8c7c3b92560405160405180910390a45050565b600081600001549050919050565b600080610c8b83610692565b90508073ffffffffffffffffffffffffffffffffffffffff168473ffffffffffffffffffffffffffffffffffffffff161480610ccd5750610ccc8185610a67565b5b80610d0b57508373ffffffffffffffffffffffffffffffffffffffff16610cf3846104a4565b73ffffffffffffffffffffffffffffffffffffffff16145b91505092915050565b8273ffffffffffffffffffffffffffffffffffffffff16610d3482610692565b73ffffffffffffffffffffffffffffffffffffffff1614610d8a576040517f08c379a0000000000000000000000000000000000000000000000000000000008152600401610d81906124b6565b60405180910390fd5b600073ffffffffffffffffffffffffffffffffffffffff168273ffffffffffffffffffffffffffffffffffffffff1603610df9576040517f08c379a0000000000000000000000000000000000000000000000000000000008152600401610df090612548565b60405180910390fd5b610e068383836001611572565b8273ffffffffffffffffffffffffffffffffffffffff16610e2682610692565b73ffffffffffffffffffffffffffffffffffffffff1614610e7c576040517f08c379a0000000000000000000000000000000000000000000000000000000008152600401610e73906124b6565b60405180910390fd5b6004600082815260200190815260200160002060006101000a81549073ffffffffffffffffffffffffffffffffffffffff02191690556001600360008573ffffffffffffffffffffffffffffffffffffffff1673ffffffffffffffffffffffffffffffffffffffff168152602001908152602001600020600082825403925050819055506001600360008473ffffffffffffffffffffffffffffffffffffffff1673ffffffffffffffffffffffffffffffffffffffff16815260200190815260200160002060008282540192505081905550816002600083815260200190815260200160002060006101000a81548173ffffffffffffffffffffffffffffffffffffffff021916908373ffffffffffffffffffffffffffffffffffffffff160217905550808273ffffffffffffffffffffffffffffffffffffffff168473ffffffffffffffffffffffffffffffffffffffff167fddf252ad1be2c89b69c2b068fc378daa952ba7f163c4a11628f55a4df523b3ef60405160405180910390a46110088383836001611698565b505050565b60006002600083815260200190815260200160002060009054906101000a900473ffffffffffffffffffffffffffffffffffffffff169050919050565b8173ffffffffffffffffffffffffffffffffffffffff168373ffffffffffffffffffffffffffffffffffffffff16036110b8576040517f08c379a00000000000000000000000000000000000000000000000000000000081526004016110af906125b4565b60405180910390fd5b80600560008573ffffffffffffffffffffffffffffffffffffffff1673ffffffffffffffffffffffffffffffffffffffff16815260200190815260200160002060008473ffffffffffffffffffffffffffffffffffffffff1673ffffffffffffffffffffffffffffffffffffffff16815260200190815260200160002060006101000a81548160ff0219169083151502179055508173ffffffffffffffffffffffffffffffffffffffff168373ffffffffffffffffffffffffffffffffffffffff167f17307eab39ab6107e8899845ad3d59bd9653f200f220920489ca2b5937696c31836040516111a99190611b1d565b60405180910390a3505050565b6111c1848484610d14565b6111cd8484848461169e565b61120c576040517f08c379a000000000000000000000000000000000000000000000000000000000815260040161120390612646565b60405180910390fd5b50505050565b6001816000016000828254019250508190555050565b600073ffffffffffffffffffffffffffffffffffffffff168273ffffffffffffffffffffffffffffffffffffffff1603611297576040517f08c379a000000000000000000000000000000000000000000000000000000000815260040161128e906126b2565b60405180910390fd5b6112a081611531565b156112e0576040517f08c379a00000000000000000000000000000000000000000000000000000000081526004016112d79061271e565b60405180910390fd5b6112ee600083836001611572565b6112f781611531565b15611337576040517f08c379a000000000000000000000000000000000000000000000000000000000815260040161132e9061271e565b60405180910390fd5b6001600360008473ffffffffffffffffffffffffffffffffffffffff1673ffffffffffffffffffffffffffffffffffffffff16815260200190815260200160002060008282540192505081905550816002600083815260200190815260200160002060006101000a81548173ffffffffffffffffffffffffffffffffffffffff021916908373ffffffffffffffffffffffffffffffffffffffff160217905550808273ffffffffffffffffffffffffffffffffffffffff16600073ffffffffffffffffffffffffffffffffffffffff167fddf252ad1be2c89b69c2b068fc378daa952ba7f163c4a11628f55a4df523b3ef60405160405180910390a4611441600083836001611698565b5050565b61144e82611531565b61148d576040517f08c379a0000000000000000000000000000000000000000000000000000000008152600401611484906127b0565b60405180910390fd5b806006600084815260200190815260200160002090816114ad919061297c565b505050565b606060405180602001604052806000815250905090565b60606114d482610b65565b60006114de6114b2565b905060008151116114fe5760405180602001604052806000815250611529565b8061150884611825565b604051602001611519929190612420565b6040516020818303038152906040525b915050919050565b60008073ffffffffffffffffffffffffffffffffffffffff166115538361100d565b73ffffffffffffffffffffffffffffffffffffffff1614159050919050565b600181111561169257600073ffffffffffffffffffffffffffffffffffffffff168473ffffffffffffffffffffffffffffffffffffffff16146116065780600360008673ffffffffffffffffffffffffffffffffffffffff1673ffffffffffffffffffffffffffffffffffffffff16815260200190815260200160002060008282546115fe9190612a7d565b925050819055505b600073ffffffffffffffffffffffffffffffffffffffff168373ffffffffffffffffffffffffffffffffffffffff16146116915780600360008573ffffffffffffffffffffffffffffffffffffffff1673ffffffffffffffffffffffffffffffffffffffff16815260200190815260200160002060008282546116899190612ab1565b925050819055505b5b50505050565b50505050565b60006116bf8473ffffffffffffffffffffffffffffffffffffffff166118f3565b15611818578373ffffffffffffffffffffffffffffffffffffffff1663150b7a026116e8610bb0565b8786866040518563ffffffff1660e01b815260040161170a9493929190612b3a565b6020604051808303816000875af192505050801561174657506040513d601f19601f820116820180604052508101906117439190612b9b565b60015b6117c8573d8060008114611776576040519150601f19603f3d011682016040523d82523d6000602084013e61177b565b606091505b5060008151036117c0576040517f08c379a00000000000000000000000000000000000000000000000000000000081526004016117b790612646565b60405180910390fd5b805181602001fd5b63150b7a0260e01b7bffffffffffffffffffffffffffffffffffffffffffffffffffffffff1916817bffffffffffffffffffffffffffffffffffffffffffffffffffffffff19161491505061181d565b600190505b949350505050565b60606000600161183484611916565b01905060008167ffffffffffffffff81111561185357611852611e35565b5b6040519080825280601f01601f1916602001820160405280156118855781602001600182028036833780820191505090505b509050600082602001820190505b6001156118e8578080600190039150507f3031323334353637383961626364656600000000000000000000000000000000600a86061a8153600a85816118dc576118db612bc8565b5b04945060008503611893575b819350505050919050565b6000808273ffffffffffffffffffffffffffffffffffffffff163b119050919050565b600080600090507a184f03e93ff9f4daa797ed6e38ed64bf6a1f0100000000000000008310611974577a184f03e93ff9f4daa797ed6e38ed64bf6a1f010000000000000000838161196a57611969612bc8565b5b0492506040810190505b6d04ee2d6d415b85acef810000000083106119b1576d04ee2d6d415b85acef810000000083816119a7576119a6612bc8565b5b0492506020810190505b662386f26fc1000083106119e057662386f26fc1000083816119d6576119d5612bc8565b5b0492506010810190505b6305f5e1008310611a09576305f5e10083816119ff576119fe612bc8565b5b0492506008810190505b6127108310611a2e576127108381611a2457611a23612bc8565b5b0492506004810190505b60648310611a515760648381611a4757611a46612bc8565b5b0492506002810190505b600a8310611a60576001810190505b80915050919050565b6000604051905090565b600080fd5b600080fd5b60007fffffffff0000000000000000000000000000000000000000000000000000000082169050919050565b611ab281611a7d565b8114611abd57600080fd5b50565b600081359050611acf81611aa9565b92915050565b600060208284031215611aeb57611aea611a73565b5b6000611af984828501611ac0565b91505092915050565b60008115159050919050565b611b1781611b02565b82525050565b6000602082019050611b326000830184611b0e565b92915050565b600081519050919050565b600082825260208201905092915050565b60005b83811015611b72578082015181840152602081019050611b57565b60008484015250505050565b6000601f19601f8301169050919050565b6000611b9a82611b38565b611ba48185611b43565b9350611bb4818560208601611b54565b611bbd81611b7e565b840191505092915050565b60006020820190508181036000830152611be28184611b8f565b905092915050565b6000819050919050565b611bfd81611bea565b8114611c0857600080fd5b50565b600081359050611c1a81611bf4565b92915050565b600060208284031215611c3657611c35611a73565b5b6000611c4484828501611c0b565b91505092915050565b600073ffffffffffffffffffffffffffffffffffffffff82169050919050565b6000611c7882611c4d565b9050919050565b611c8881611c6d565b82525050565b6000602082019050611ca36000830184611c7f565b92915050565b611cb281611c6d565b8114611cbd57600080fd5b50565b600081359050611ccf81611ca9565b92915050565b60008060408385031215611cec57611ceb611a73565b5b6000611cfa85828601611cc0565b9250506020611d0b85828601611c0b565b9150509250929050565b611d1e81611bea565b82525050565b6000602082019050611d396000830184611d15565b92915050565b600080600060608486031215611d5857611d57611a73565b5b6000611d6686828701611cc0565b9350506020611d7786828701611cc0565b9250506040611d8886828701611c0b565b9150509250925092565b600060208284031215611da857611da7611a73565b5b6000611db684828501611cc0565b91505092915050565b611dc881611b02565b8114611dd357600080fd5b50565b600081359050611de581611dbf565b92915050565b60008060408385031215611e0257611e01611a73565b5b6000611e1085828601611cc0565b9250506020611e2185828601611dd6565b9150509250929050565b600080fd5b600080fd5b7f4e487b7100000000000000000000000000000000000000000000000000000000600052604160045260246000fd5b611e6d82611b7e565b810181811067ffffffffffffffff82111715611e8c57611e8b611e35565b5b80604052505050565b6000611e9f611a69565b9050611eab8282611e64565b919050565b600067ffffffffffffffff821115611ecb57611eca611e35565b5b611ed482611b7e565b9050602081019050919050565b82818337600083830152505050565b6000611f03611efe84611eb0565b611e95565b905082815260208101848484011115611f1f57611f1e611e30565b5b611f2a848285611ee1565b509392505050565b600082601f830112611f4757611f46611e2b565b5b8135611f57848260208601611ef0565b91505092915050565b60008060008060808587031215611f7a57611f79611a73565b5b6000611f8887828801611cc0565b9450506020611f9987828801611cc0565b9350506040611faa87828801611c0b565b925050606085013567ffffffffffffffff811115611fcb57611fca611a78565b5b611fd787828801611f32565b91505092959194509250565b600080fd5b600080fd5b60008083601f84011261200357612002611e2b565b5b8235905067ffffffffffffffff8111156120205761201f611fe3565b5b60208301915083600182028301111561203c5761203b611fe8565b5b9250929050565b6000806020838503121561205a57612059611a73565b5b600083013567ffffffffffffffff81111561207857612077611a78565b5b61208485828601611fed565b92509250509250929050565b600080604083850312156120a7576120a6611a73565b5b60006120b585828601611cc0565b92505060206120c685828601611cc0565b9150509250929050565b7f4e487b7100000000000000000000000000000000000000000000000000000000600052602260045260246000fd5b6000600282049050600182168061211757607f821691505b60208210810361212a576121296120d0565b5b50919050565b7f4552433732313a20617070726f76616c20746f2063757272656e74206f776e6560008201527f7200000000000000000000000000000000000000000000000000000000000000602082015250565b600061218c602183611b43565b915061219782612130565b604082019050919050565b600060208201905081810360008301526121bb8161217f565b9050919050565b7f4552433732313a20617070726f76652063616c6c6572206973206e6f7420746f60008201527f6b656e206f776e6572206f7220617070726f76656420666f7220616c6c000000602082015250565b600061221e603d83611b43565b9150612229826121c2565b604082019050919050565b6000602082019050818103600083015261224d81612211565b9050919050565b7f4552433732313a2063616c6c6572206973206e6f7420746f6b656e206f776e6560008201527f72206f7220617070726f76656400000000000000000000000000000000000000602082015250565b60006122b0602d83611b43565b91506122bb82612254565b604082019050919050565b600060208201905081810360008301526122df816122a3565b9050919050565b7f4552433732313a20696e76616c696420746f6b656e2049440000000000000000600082015250565b600061231c601883611b43565b9150612327826122e6565b602082019050919050565b6000602082019050818103600083015261234b8161230f565b9050919050565b7f4552433732313a2061646472657373207a65726f206973206e6f74206120766160008201527f6c6964206f776e65720000000000000000000000000000000000000000000000602082015250565b60006123ae602983611b43565b91506123b982612352565b604082019050919050565b600060208201905081810360008301526123dd816123a1565b9050919050565b600081905092915050565b60006123fa82611b38565b61240481856123e4565b9350612414818560208601611b54565b80840191505092915050565b600061242c82856123ef565b915061243882846123ef565b91508190509392505050565b7f4552433732313a207472616e736665722066726f6d20696e636f72726563742060008201527f6f776e6572000000000000000000000000000000000000000000000000000000602082015250565b60006124a0602583611b43565b91506124ab82612444565b604082019050919050565b600060208201905081810360008301526124cf81612493565b9050919050565b7f4552433732313a207472616e7366657220746f20746865207a65726f2061646460008201527f7265737300000000000000000000000000000000000000000000000000000000602082015250565b6000612532602483611b43565b915061253d826124d6565b604082019050919050565b6000602082019050818103600083015261256181612525565b9050919050565b7f4552433732313a20617070726f766520746f2063616c6c657200000000000000600082015250565b600061259e601983611b43565b91506125a982612568565b602082019050919050565b600060208201905081810360008301526125cd81612591565b9050919050565b7f4552433732313a207472616e7366657220746f206e6f6e20455243373231526560008201527f63656976657220696d706c656d656e7465720000000000000000000000000000602082015250565b6000612630603283611b43565b915061263b826125d4565b604082019050919050565b6000602082019050818103600083015261265f81612623565b9050919050565b7f4552433732313a206d696e7420746f20746865207a65726f2061646472657373600082015250565b600061269c602083611b43565b91506126a782612666565b602082019050919050565b600060208201905081810360008301526126cb8161268f565b9050919050565b7f4552433732313a20746f6b656e20616c7265616479206d696e74656400000000600082015250565b6000612708601c83611b43565b9150612713826126d2565b602082019050919050565b60006020820190508181036000830152612737816126fb565b9050919050565b7f45524337323155524953746f726167653a2055524920736574206f66206e6f6e60008201527f6578697374656e7420746f6b656e000000000000000000000000000000000000602082015250565b600061279a602e83611b43565b91506127a58261273e565b604082019050919050565b600060208201905081810360008301526127c98161278d565b9050919050565b60008190508160005260206000209050919050565b60006020601f8301049050919050565b600082821b905092915050565b6000600883026128327fffffffffffffffffffffffffffffffffffffffffffffffffffffffffffffffff826127f5565b61283c86836127f5565b95508019841693508086168417925050509392505050565b6000819050919050565b600061287961287461286f84611bea565b612854565b611bea565b9050919050565b6000819050919050565b6128938361285e565b6128a761289f82612880565b848454612802565b825550505050565b600090565b6128bc6128af565b6128c781848461288a565b505050565b5b818110156128eb576128e06000826128b4565b6001810190506128cd565b5050565b601f82111561293057612901816127d0565b61290a846127e5565b81016020851015612919578190505b61292d612925856127e5565b8301826128cc565b50505b505050565b600082821c905092915050565b600061295360001984600802612935565b1980831691505092915050565b600061296c8383612942565b9150826002028217905092915050565b61298582611b38565b67ffffffffffffffff81111561299e5761299d611e35565b5b6129a882546120ff565b6129b38282856128ef565b600060209050601f8311600181146129e657600084156129d4578287015190505b6129de8582612960565b865550612a46565b601f1984166129f4866127d0565b60005b82811015612a1c578489015182556001820191506020850194506020810190506129f7565b86831015612a395784890151612a35601f891682612942565b8355505b6001600288020188555050505b505050505050565b7f4e487b7100000000000000000000000000000000000000000000000000000000600052601160045260246000fd5b6000612a8882611bea565b9150612a9383611bea565b9250828203905081811115612aab57612aaa612a4e565b5b92915050565b6000612abc82611bea565b9150612ac783611bea565b9250828201905080821115612adf57612ade612a4e565b5b92915050565b600081519050919050565b600082825260208201905092915050565b6000612b0c82612ae5565b612b168185612af0565b9350612b26818560208601611b54565b612b2f81611b7e565b840191505092915050565b6000608082019050612b4f6000830187611c7f565b612b5c6020830186611c7f565b612b696040830185611d15565b8181036060830152612b7b8184612b01565b905095945050505050565b600081519050612b9581611aa9565b92915050565b600060208284031215612bb157612bb0611a73565b5b6000612bbf84828501612b86565b91505092915050565b7f4e487b7100000000000000000000000000000000000000000000000000000000600052601260045260246000fdfea2646970667358221220ba1e3859fda60137ae22e1b2c9d68f358c861cd181c453348b42d9a55d8d238064736f6c63430008110033",
  "linkReferences": {},
  "deployedLinkReferences": {}
}